S01400004947535F55534D5F56312E302E7372656395
S113000026C00EC376C33EC03DC03CC03BC03AC010
S113001039C038C037C036C035C034C033C032C030
S1130020EFC230C02FC02EC02DC02CC02BC02AC0A0
S113003029C028C092C191C190C18FC1CEC190C1C5
S1130040CCC1CBC1CAC1A0C1BAC1BEC1C2C11124F5
S11300501FBECFEFD2E0DEBFCDBF11E0A0E0B1E024
S1130060ECE0F8E002C005900D92A830B107D9F792
S113007021E0A8E0B1E001C01D92A132B207E1F78E
S1130080B2D1C2C3BDCF83E084B98CE087B980E329
S11300908AB915B818B81BB884E088B90895E9E698
S11300A0F0E010828081826080838081846080831C
S11300B080818860808383E08DBB089514BC15BC67
S11300C081E080936E0085BB089510920A0110921E
S11300D02001EAE1F1E0108211821282138214827B
S11300E0158208950F931F93CF9384E090E076D305
S11300F0082F85E090E072D3C82F86E090E06ED39D
S1130100402F50E060E070E09A01112700274C2F47
S113011050E060E070E0762F652F542F4427400FA5
S1130120511F621F731F8A019B01080F111D211D9E
S1130130311DC901B801CF911F910F91089587E036
S113014090E04CD380930B0189E090E047D3282FB3
S113015030E0A4EEB2E036D3DC01CB01845A944DF6
S1130160AF4FBF4F26E0B695A795979587952A95EB
S1130170D1F78093030190930401A0930501B093F8
S113018006018AE090E02AD38E5C809302018BE022
S113019090E024D38F5F809301018CE090E01ED324
S11301A08F5F809300010895109219011092180135
S11301B080E280937C0081E880937A00089520E0B7
S11301C030E090E040E22817390764F44BB953E07B
S11301D05A95F1F700001BB800C000C000002F5F63
S11301E03F4FF1CF0895FA018081813029F4818154
S11301F0813089F181E030C0743059F028F47330D3
S113020001F518B883E020C0753031F0763041F044
S113021018C078B984E018C088E088B985E014C0B3
S113022080911601811106C084E088B981E0809331
S1130230160109C0813039F488E088B9109216019A
S113024002C080E001C086E0E7EBFBE03197F1F704
S113025000C0000001C082E0E9EFF0E03197F1F75F
S113026000C0000090E19BB9F4E6FA95F1F7982FED
S113027091709295907F9BB994E69A95F1F781FBE2
S1130280992790F99295907F9BB9E4E6EA95F1F766
S1130290869586958295807F8BB9F4E6FA95F1F779
S11302A01BB80895809100018ADF8DEE92E00197DA
S11302B0F1F700C0000080E090E0DC014091030110
S11302C0509104016091050170910601841795070E
S11302D0A607B707D8F420917A00206420937A0007
S11302E020917A003091790020910201231750F473
S11302F020911801309119012F5F3F4F309319015C
S1130300209318010196A11DB11DD8CF8091180129
S11303109091010121E0981708F020E02093170143
S1130320981710F488E001C084E088B9109219018C
S113033010921801809117010895FF920F931F9353
S1130340CF93DF93072F10E0F8013397ED30F105D9
S113035008F043C0E65EFF4F0994FA0110820EC014
S11303608A01C82FD72FF62E81E0FA0180839ADF05
S1130370F8018183A8016F2D7D2F8C2FDF91CF9100
S11303801F910F91FF902FCF282F30E0A4EEB2E001
S113039019D2DC01CB01845A944DAF4FBF4F26E0F4
S11303A0B695A795979587952A95D1F780930301DC
S11303B090930401A0930501B09306010EC022E3BB
S11303C0280F2093020109C021E0280F2093010186
S11303D004C021E0280F20930001DF91CF911F91E9
S11303E00F91FF900895CF93DF9300D0CDB7DEB780
S11303F04ADE55DED9DE62DE75DE6093120170934B
S11304001301809314019093150199DE78945DDEB5
S113041014E001E080910801813031F590910901E7
S113042020910A0140910A01E0910A01E695E695BE
S1130430E695F0E0E65EFE4F5081892F30E0469568
S11304404695469568E0469F20193109112401C05C
S1130450880F2A95EAF7852B808380910A018F5FA4
S113046080930A011092080180910A01843290F26B
S113047015BC80911A018F7090E095958795813015
S1130480910509F488C01CF4892B81F0B7C084302D
S1130490910509F499C0079709F0B0C080910D0146
S11304A0813009F4ABC018B818B8A8C030911A014B
S11304B080911B0150911B0120911C0160911C0132
S11304C040911D0170E1879FC00111249927329545
S11304D03F70832B092E000CAA0BBB0B7C01DD247F
S11304E0CC2480E1289F900111243327852F829505
S11304F08F70F901E82BCF01092E000CAA0BBB0B5E
S1130500BA2FA92F982F88278C0D9D1DAE1DBF1DB6
S1130510F0E14F9FA0011124552762956F70462B7F
S1130520052E000C660B770B840F951FA61FB71FB3
S113053080930E0190930F01A0931001B0931101C9
S1130540F0901D0120911E01409112015091130160
S1130550609114017091150184179507A607B707D8
S113056009F04CC0F2948FE0F82230E1239FC001DF
S11305701124F82A18B987E090E030D180930B0158
S1130580F0920C01F81621F06F2D87E090E02ED147
S113059000930D0133C080910D01813079F5609194
S11305A01A0190911B0162956F7070E1979FC001D1
S11305B01124682B70911B0172957F7080911C012E
S11305C01A8290910C0114C060911A0190911B0140
S11305D062956F70E0E19E9FC0011124682B7091B9
S11305E01B0172957F7080911C011A8290910B01FE
S11305F0691304C0AE014F5F5F4F9FDE66DD0ACF13
S11306001F920F920FB60F9211248F9381E0809363
S1130610080116BC8F910F900FBE0F901F90189574
S11306201F920F920FB60F9211242F933F934F9363
S11306308F939F93EF93FF9315BC16BCA8988AE001
S11306408A95F1F78091200180FD27C080912001D7
S113065082608093200120910A0190910A01E09127
S11306600A01E695E695E695F0E0E65EFE4F4081E8
S113067030E096959695969588E0989F20193109D3
S1130680112481E090E001C0880F2A95EAF7842BB9
S1130690808381E08093090115C0809120018D7FC2
S11306A08093200180910A0180910A01E0910A015E
S11306B0E695E695E695F0E0E65EFE4F8081808360
S11306C01092090180910A018F5F80930A0181E0F1
S11306D085BD16BC85BB83E08CBBFF91EF919F91D8
S11306E08F914F913F912F910F900FBE0F901F90BC
S11306F018951F920F920FB60F9211242F933F93C8
S11307004F938F939F93EF93FF9315BC16BCA898B8
S11307108AE08A95F1F78091200181FD27C08091BC
S1130720200181608093200120910A0190910A01A7
S1130730E0910A01E695E695E695F0E0E65EFE4F67
S1130740408130E096959695969588E0989F20197B
S11307503109112481E090E001C0880F2A95EAF75D
S1130760842B808381E08093090115C0809120014E
S11307708E7F8093200180910A0180910A01E0918B
S11307800A01E695E695E695F0E0E65EFE4F808187
S113079080831092090180910A018F5F80930A017E
S11307A081E085BD16BC85BB83E08CBBFF91EF91D6
S11307B09F918F914F913F912F910F900FBE0F906A
S11307C01F901895A29FB001B39FC001A39F01D0B1
S11307D0B29F700D811D1124911D0895F999FECFCA
S11307E012BC81BDF89A992780B50895262FF999EE
S11307F0FECF1FBA12BC81BD20BD0FB6F894FA9A81
S10F0800F99A0FBE01960895F894FFCFFA
S10B080C0A034322010000006D
S9030000FC
