S00F00004947535F53434D2E73726563F0
S1130000A7C00000C3C00000C1C00000BFC0000002
S1130010BDC00000BBC00000B9C000000C94840F38
S1130020B5C00000B3C000000C94E40BAFC00000E6
S1130030ADC00000ABC00000A9C00000A7C0000014
S11300400C94C40AA3C000000C94850A0C94A20B5F
S11300500C94D20B9BC0000099C0000097C0000014
S113006095C0000093C0000091C000008FC0000044
S11300708DC000008BC0000089C0000087C0000054
S113008085C0000083C0000081C000005E0B680BC7
S1130090860B860B860B860B860B860B860B860BD4
S11300A0860B860B860B860B860B860B860B860BC4
S11300B0860B860B860B860B860B860B860B860BB4
S11300C0860B860B860B860B860B860B0E0B180B8A
S11300D02C0B360B400B220B4A0B540B860B860B56
S11300E0860B860B860B860B860B860B860B860B84
S11300F0860B860B860B860B860B860B860B860B74
S1130100860B860B860B860B860B860B860B860B63
S1130110860B860B860B860B860B860B860B860B53
S1130120860B860B860B860B860B860B860B860B43
S1130130860B860B860B860B860B860B860B860B33
S1130140860B860B860B860B860B860B7C0B720B41
S113015011241FBECFEFD0E1DEBFCDBF13E0A0E07E
S1130160B1E0E2EEFFE100E00BBF02C007900D92A8
S1130170A031B107D9F720E1A0E1B3E001C01D929D
S1130180AC36B207E1F7B3D70C94EF0F39CF611552
S11301907105A1F0DC01680F791F252F33279D918C
S11301A0FA01E927FF27EE0FFF1FE05FFE4F4081B2
S11301B0518142275327A617B70779F7CA01089533
S11301C08CB78F778CBF8CB78F678CBF8CB78068E8
S11301D08CBF089590E797BB88E181BB86E982B91B
S11301E010926100E4E6F0E080818360808312BABB
S11301F098BB84E083B910926200089580E28ABFBC
S11302000895E0B1E295EF70F0E0E050FF4F808197
S1130210089581E0029980E0089581E0019980E0E9
S1130220089581E00D9B80E00895109290008CE089
S113023089B986E08093950088E98AB9089513BE48
S113024087B7816087BF12BE0895FC01EE51FE4F4F
S1130250118210823297118210820895FC01EE51AE
S1130260FE4F20813181203E314068F4208131816C
S1130270DC01A20FB31F6C9380819181019691835D
S1130280808381E0089580E00895FC01EE51FE4FE3
S1130290408151813297208131814217530770F494
S11302A03296A081B181A80FB91F2C91DB012C9348
S11302B0208131812F5F3F4F31832083FC01EE5138
S11302C0FE4F4081518132972081318181E0421774
S11302D0530709F080E00895EAE0FEE010821182FD
S11302E01282138214821582E2E1FEE082EF9FE023
S11302F01192E817F907E1F71092F30F1092F20F39
S113030008954FEF5FEF43CF0895CF93DF93E4DF7A
S1130310C1EDDBE0388189812A81EAE0FEE090E0EA
S1130320A0E0B0E0932BDC0199278827822B8083FF
S11303309183A283B3838B8184838C8185838D8114
S11303406E8170E0782B77836683613E81E0780765
S113035048F080EE91E09093110E8093100E60EEC1
S113036071E003C06115710569F0E2E1FEE080E02F
S113037090E0DC01A852B44F2C912193019686178A
S11303809707B8F3FB01E852F44F2081FB01E752D1
S1130390F44F808190E0922B9093F30F8093F20FAF
S11303A06C5F7F4F4FEF5FEF84ED9BE0F0DE409199
S11303B00A0E50910B0E60910C0E70910D0E452B90
S11303C0462B472B79F42091F20F3091F30F8217CB
S11303D0930751F480919B0890910E0E981306C0D8
S11303E083E005C080E003C081E001C082E0DF91CA
S11303F0CF910895CF93DF93EB01E0ECF9E0108205
S11304001182128290919B0893838483D58366839F
S1130410603E714088F1C0EED1E080E090E0FA01E6
S1130420E80FF91F2081FC01E953F64F2083019660
S11304308C179D07A0F3CE010B969093A10B80938C
S1130440A00BBE016C5F7F4F4FEF5FEF83EC99E031
S11304509EDEFE01E953F64F9083FE01E853F64F0A
S11304608083FE01E753F64F1082C653D64F18829D
S113047057981A98559A03C02097E9F2CECFDF9186
S1130480CF91089515BC87B7806487BF14BC0895C5
S113049080E090E0FC01E85BF64F1082FC01EC5038
S11304A0F04F1082FC01EF55F74F10820196883708
S11304B0910581F780919A0880934809089580E016
S11304C090E0FC01E05EF64F1082FC01EC55F44F25
S11304D01082019688329105A1F780919908809342
S11304E02009089580E090E0FC01EA54F24F108264
S11304F0019688329105C1F7089580E090E0FC01EF
S1130500E152F24F1082019688329105C1F70895A5
S11305102F923F924F925F926F927F928F929F920F
S1130520AF92BF92CF92DF92EF92FF920F931F93FD
S1130530CF93DF93CDB7DEB7E0970FB6F894DEBF65
S11305400FBECDBF4EA749835FA75A8368AB6B83A9
S11305507C838D8394E893B9E9E2F2E03197F1F773
S113056000C0000040FB882480F8912C9694982CBD
S1130570882497948794982D946093B9E9E2F2E0E3
S11305803197F1F700C0000041FBAA24A0F8B12C78
S1130590B694BA2CAA24B794A7949A2D946093B9CC
S11305A0E9E2F2E03197F1F700C0000042FBCC240D
S11305B0C0F8D12CD694DC2CCC24D794C7949C2D91
S11305C0946093B9E9E2F2E03197F1F700C00000DA
S11305D050FBEE24E0F8F12CF694FE2CEE24F79474
S11305E0E7949E2D946093B9E9E2F2E03197F1F734
S11305F000C0000051FB002700F910E01695102FF1
S1130600002717950795046003B9E9E2F2E03197F2
S1130610F1F700C0000052FBAA27A0F9B0E0B6959C
S1130620BA2FAA27B795A795A460A3B9E9E2F2E087
S11306303197F1F700C0000053FBEE27E0F9F0E03A
S1130640F695FE2FEE27F795E795E460E3B9E9E226
S1130650F2E03197F1F700C0000054FB222720F9A3
S113066030E03695322F222737952795246023B919
S1130670E9E2F2E03197F1F700C0000055FB66248F
S113068060F8712C93013695322F222737952795E0
S1130690922F946093B9E9E2F2E03197F1F700C048
S11306A0000056FBFF27F0F9FE831F822E813F8155
S11306B03695322F222737952795246023B9E9E20E
S11306C0F2E03197F1F700C00000551F5527551F80
S11306D0252F30E03695322F222737952795246031
S11306E023B9E9E2F2E03197F1F700C00000F62FF8
S11306F0F170F8871986288539853695322F222797
S113070037952795246023B9E9E2F2E03197F1F7B0
S113071000C0000061FBFF27F0F9FA871B862A85D9
S11307203B853695322F222737952795246023B9A8
S1130730E9E2F2E03197F1F700C0000062FBFF2725
S1130740F0F9FC871D862C853D853695322F2227AE
S113075037952795246023B9E9E2F2E03197F1F760
S113076000C0000063FBFF27F0F9FE871F862E857B
S11307703F853695322F222737952795246023B954
S1130780E9E2F2E03197F1F700C0000064FBFF27D3
S1130790F0F9F88B198A288939893695322F22275E
S11307A037952795246023B9E9E2F2E03197F1F710
S11307B000C0000065FBFF27F0F9FA8B1B8A2A8929
S11307C03B893695322F222737952795246023B904
S11307D0E9E2F2E03197F1F700C0000066FBFF2781
S11307E0F0F9FC8B1D8A2C893D893695322F2227FE
S11307F037952795246023B9E9E2F2E03197F1F7C0
S113080000C00000661F6627661F262F30E036955D
S1130810322F222737952795246023B9E9E2F2E0A5
S11308203197F1F700C00000F72FF170FE8B1F8A9B
S11308302E893F893695322F2227379527952460B4
S113084023B9E9E2F2E03197F1F700C0000071FB4F
S1130850FF27F0F9F88F198E288D398D3695322FB0
S1130860222737952795246023B9E9E2F2E03197EE
S1130870F1F700C0000072FBFF27F0F9FA8F1B8E1E
S11308802A8D3B8D3695322F222737952795246064
S113089023B9E9E2F2E03197F1F700C0000073FBFD
S11308A0FF27F0F9FC8F1D8E2C8D3D8D3695322F50
S11308B0222737952795246023B9E9E2F2E031979E
S11308C0F1F700C0000074FBFF27F0F9FE8F1F8EC4
S11308D02E8D3F8D3695322F22273795279524600C
S11308E023B9E9E2F2E03197F1F700C0000075FBAB
S11308F0FF27F0F9F8A319A228A139A13695322FC0
S1130900222737952795246023B9E9E2F2E031974D
S1130910F1F700C0000076FBFF27F0F9FAA31BA251
S11309202AA13BA13695322F22273795279524609B
S113093023B9E9E2F2E03197F1F700C00000771F34
S11309407727771F272F30E03695322F22273795C8
S11309502795246023B9E9E2F2E03197F1F700C06A
S11309600000F82FF170FCA31DA22CA13DA1369527
S1130970322F222737952795246023B9E9E2F2E044
S11309803197F1F700C0000081FBFF27F0F9FEA3C7
S11309901FA22EA13FA13695322F222737952795E6
S11309A0246023B9E9E2F2E03197F1F700C00000D6
S11309B082FBFF27F0F9F8A719A628A539A53695D3
S11309C0322F222737952795246023B9E9E2F2E0F4
S11309D03197F1F700C0000083FBFF27F0F9FAA775
S11309E01BA62AA53BA53695322F22273795279596
S11309F0246023B9E9E2F2E03197F1F700C0000086
S1130A0084FBFF27F0F9FCA71DA62CA53DA5369570
S1130A10322F222737952795246023B9E9E2F2E0A3
S1130A203197F1F700C0000085FB442440F8512CB5
S1130A3092013695322F222737952795246023B9C2
S1130A40E9E2F2E03197F1F700C0000086FB2224CE
S1130A5020F8312C91013695322F2227379527958E
S1130A60246023B9E9E2F2E03197F1F700C0000015
S1130A70881F8827881F90E09695982F8827979538
S1130A808795846083B989E292E00197F1F700C009
S1130A90000084E083B9E0960FB6F894DEBF0FBE81
S1130AA0CDBFDF91CF911F910F91FF90EF90DF9019
S1130AB0CF90BF90AF909F908F907F906F905F90FA
S1130AC04F903F902F9008952F923F924F925F92B4
S1130AD06F927F928F929F92AF92BF92CF92DF924A
S1130AE0EF92FF920F931F93CF93DF93CDB7DEB7AF
S1130AF063970FB6F894DEBF0FBECDBF24E823B9C9
S1130B00E9E2F2E03197F1F700C0000060FBAA24AB
S1130B10A0F8B12CB694BA2CAA24B794A794FA2DB1
S1130B20F460F3B9E9E2F2E03197F1F700C00000B4
S1130B3061FBCC24C0F8D12CD694DC2CCC24D794E3
S1130B40C794FC2DF460F3B9E9E2F2E03197F1F7D0
S1130B5000C0000062FBEE24E0F8F12CF694FE2CB9
S1130B60EE24F794E7946E2D646063B9E9E2F2E051
S1130B703197F1F700C00000072F017010E01695BF
S1130B80102F002717950795046003B9E9E2F2E0F6
S1130B903197F1F700C0000071FBFF27F0F9FA8BE1
S1130BA01B8A2A893B893695322F22273795279528
S1130BB03B8B2A8B246023B9E9E2F2E03197F1F709
S1130BC000C0000072FBAA27A0F9B0E0B695BA2FC6
S1130BD0AA27B795A795A460A3B9E9E2F2E03197F3
S1130BE0F1F700C0000073FBEE27E0F9F0E0F695A2
S1130BF0FE2FEE27F795E795E460E3B9E9E2F2E02A
S1130C003197F1F700C0000074FB442740F950E02D
S1130C105695542F442757954795446043B9E9E2C4
S1130C20F2E03197F1F700C0000075FB222720F9AC
S1130C3030E03695322F222737952795246023B943
S1130C40E9E2F2E03197F1F700C0000076FB882476
S1130C5080F8912C94013695322F222737952795C9
S1130C60246023B9E9E2F2E03197F1F700C0000013
S1130C70771F7727771F272F30E03695322F2227CB
S1130C8037952795246023B9E9E2F2E03197F1F72B
S1130C9000C0000080FB662460F8712C9301369537
S1130CA0322F222737952795246023B9E9E2F2E011
S1130CB03197F1F700C0000081FB442440F8512C27
S1130CC092013695322F222737952795246023B930
S1130CD0E9E2F2E03197F1F700C0000082FBFF2760
S1130CE0F0F9F9831A8229813A813695322F222725
S1130CF037952795246023B9E9E2F2E03197F1F7BB
S1130D0000C0000083FB882780F98B831C822B8121
S1130D103C813695322F222737952795246023B9B5
S1130D20E9E2F2E03197F1F700C00000F92FF17029
S1130D30FD831E822D813E813695322F22273795E1
S1130D402795246023B9E9E2F2E03197F1F700C076
S1130D50000091FBFF27F0F9FF8318862F81388567
S1130D603695322F222737952795246023B9E9E257
S1130D70F2E03197F1F700C0000092FBFF27F0F991
S1130D80F9871A8629853A853695322F2227379591
S1130D902795246023B9E9E2F2E03197F1F700C026
S1130DA0000093FBFF27F0F9FB871C862B853C850D
S1130DB03695322F222737952795246023B9E9E207
S1130DC0F2E03197F1F700C0000094FBFF27F0F93F
S1130DD0FD871E862D853E853695322F2227379531
S1130DE02795246023B9E9E2F2E03197F1F700C0D6
S1130DF0000095FBFF27F0F9FF87188A2F853889B3
S1130E003695322F222737952795246023B9E9E2B6
S1130E10F2E03197F1F700C0000096FB222420F89D
S1130E20312C91013695322F22273795279524604E
S1130E3023B9E9E2F2E03197F1F700C00000991F0D
S1130E409927991F892F90E09695982F8827979531
S1130E508795846083B989E292E00197F1F700C035
S1130E60000084E083B963960FB6F894DEBF0FBE2A
S1130E70CDBFDF91CF911F910F91FF90EF90DF9045
S1130E80CF90BF90AF909F908F907F906F905F9026
S1130E904F903F902F90089585B7806885BF88E66E
S1130EA080936D0082E880936C000895FC0180813A
S1130EB0861301C0C49808950F931F93CF93DF93B3
S1130EC0A62FB0E0109769F1FC01319680E090E024
S1130ED0408150E060E070E0BA0155274427228148
S1130EE0422B018110E0102F0027012E000C220B51
S1130EF0330B402B512B622B732BEC01CC0FDD1FDA
S1130F00CC0FDD1FC755D94F488359836A837B8330
S1130F10EC01C75EDA4F1882019634968A179B0754
S1130F20B9F680918C08846080938C08DF91CF910E
S1130F301F910F910895CF92DF92EF92FF92CF937A
S1130F40DF93A62FB0E0109761F1FC01319680E0A9
S1130F5090E030812181428150E060E070E06A01DC
S1130F607B01E32A30E0522F4427052E000C660B48
S1130F70770B4C295D296E297F29EC01CC0FDD1FED
S1130F80CC0FDD1FC75FD94F488359836A837B83A6
S1130F90EC01CF50DB4F1882019634968A179B07D9
S1130FA0C1F680918C08886080938C08DF91CF9182
S1130FB0FF90EF90DF90CF90089590E0009761F05C
S1130FC00196E5E0F1E121E030E020832F5F3F4F1F
S1130FD03A9628173907C9F70895462F50E0411566
S1130FE0510579F0FC01319620E030E08081D9018F
S1130FF0A75EBA4F8C932F5F3F4F32962417350765
S1131000A9F780918C08806280938C08089570E021
S11310106115710579F0FC01319620E030E08081A2
S1131020D901AF50BB4F8C932F5F3F4F3296261799
S11310303707A9F780918C08806480938C08089501
S1131040CF93DF93C62FD0E02097F9F0BC016F5FF8
S11310507F4FCC0FDD1FCC0FDD1F20E030E010C030
S11310609191D901AF5EBC4F9C932F5F3F4F4217C4
S11310705307B1F76B5F7F4F9A014C175D0729F057
S1131080A9014C5F5F4FFB01EBCF80918C0880611D
S113109080938C08DF91CF9108951F93CF93DF93B2
S11310A0EC01162F2ADA412F50E041155105B1F019
S11310B0DE01119680E090E02C912058FC01EF565F
S11310C0FA4F2083EC91F0E0E15AF24F20812F5F38
S11310D02083019612968417950771F780918C08E6
S11310E0806880938C08DF91CF911F910895DF92DF
S11310F0EF92FF920F931F93CF93DF936BD8CCDEC5
S113110080D880939B0885D88093A00886D8809344
S11311101F0910928C088091A008811115C085D8F0
S11311208ED81092B40D1092B30D1092B20D10928D
S1131130B10D1092A30B1092A20B1092A10B10925E
S1131140A00BA6D99FD910C084E680939A08C3E067
S1131150C0938C0881E08093900885E080939C087C
S113116084E62BDF8FD9C5BD7894DD24D3940F2E6C
S1131170FAE0EF2EFEE0FF2EF02D53D881110AC0C5
S113118087EC90E00197F1F700C000004AD888236B
S113119009F4AEC1C0919408D09195081D2FDD23A8
S11311A009F413C1CD2FD0FF2FC080918C088E7FFE
S11311B080938C086DD9F701668177817695679560
S11311C07695679560939A086093480982E19EE05A
S11311D073DE80919A08811107C040E050E060E01E
S11311E070E082E407D906C040E050E060E070E0BF
S11311F081E300D910929208109290081092100383
S11312001092950810929408C1FF2BC080918C080D
S11312108D7F80938C0853D9F70166817781769509
S1131220679576956795609399086093200982E1A4
S11312309EE081DE80919A08811107C040E050E071
S113124060E070E082E4D6D806C040E050E060E0A0
S113125070E081E3CFD81092910810929508109213
S11312609408C2FF1AC060919A0882E19EE015DFDB
S113127080919A08811107C040E050E060E070E07E
S113128082E4B8D806C040E050E060E070E081E35A
S1131290B1D81092950810929408C3FF1DC0D09243
S11312A08E0860919A0882E19EE097DEF1D88091E1
S11312B09A08811107C040E050E060E070E082E4E9
S11312C099D806C040E050E060E070E081E392D835
S11312D01092950810929408C4FF1DC0D0928D08F6
S11312E060919A0882E19EE092DEE9D880919A08A2
S11312F0811107C040E050E060E070E082E47AD8F9
S113130006C040E050E060E070E081E373D81092E2
S1131310950810929408C5FF22C019BE1092900837
S113132060919A0882E19EE08BDE10928A08109206
S11313309208AED880919A08811107C040E050E02D
S113134060E070E082E456D806C040E050E060E01F
S113135070E081E34FD81092950810929408C6FF6C
S113136018C010928E0894D880919A08811107C0F1
S113137040E050E060E070E082E43CD806C040E029
S113138050E060E070E081E335D810929508109247
S1131390940811230CF0F1CE10928D0890D880910E
S11313A09A08811107C040E050E060E070E082E4F8
S11313B021D806C040E050E060E070E081E31AD834
S11313C01092950810929408D8CECC2309F4D5CE67
S11313D08E011127C0FF1BC060919A08611107C0DC
S11313E040E050E060E070E082E404D80CC070E0BB
S11313F06F5F7F4F759567956F5F7F4F48E459E046
S113140081E10E94FA01109295081092940801FF5C
S11314101EC080919A08811108C040E050E060E04D
S113142070E082E40E94FA010EC06091990870E0B5
S11314306F5F7F4F759567956F5F7F4F40E259E00F
S113144082E10E94FA01109295081092940802FF1A
S113145019C0D092900880919A08811108C040E088
S113146050E060E070E082E40E94FA0107C040E0CE
S113147050E060E070E081E30E94FA011092950868
S11314801092940803FF19C01092900880919A0852
S1131490811108C040E050E060E070E082E40E9406
S11314A0FA0107C040E050E060E070E081E30E9490
S11314B0FA011092950810929408CC230CF05DCE9A
S11314C080919A08811108C040E050E060E070E02B
S11314D082E40E94FA0107C040E050E060E070E05E
S11314E081E40E94FA01109295081092940845CE66
S11314F080E183B9C49880E090E0DF91CF911F919F
S11315000F91FF90EF90DF9008951F920F920FB606
S11315100F9211240BB60F922F933F934F935F9327
S11315206F937F938F939F93AF93BF93EF93FF93A7
S11315308CB18093CE0B6091CE0B81ED9BE00E9429
S11315402E01811108C01092B40D1092B30D1092A7
S1131550B20D1092B10D12BE84E083BFC49AC59A35
S1131560C69AFF91EF91BF91AF919F918F917F9117
S11315706F915F914F913F912F910F900BBE0F9000
S11315800FBE0F901F9018951F920F920FB60F92D7
S113159011240BB60F922F933F934F935F936F9346
S11315A07F938F939F93AF93BF93EF93FF9312BE59
S11315B0809197088F5F8093970880919708813076
S11315C009F0ADC013BE1092B40D1092B30D109279
S11315D0B20D1092B10D1092A30B1092A20B1092A7
S11315E0A10B1092A00B109297080E9485018130E4
S11315F031F018F0833029F092C0C69890C0C69894
S11316008EC0E0910F0E8E2F90E0FC013197E236F0
S1131610F10508F07BC0EA5BFF4FD8C480919408C1
S1131620909195089160909395088093940877C061
S11316308091940890919508926090939508809376
S113164094086DC08091940890919508946090934B
S113165095088093940863C08091940890919508AC
S11316609860909395088093940859C08091940849
S113167090919508906190939508809394084FC039
S11316808091940890919508906290939508809326
S1131690940845C080919408909195089064909323
S11316A09508809394083BC0809194089091950884
S11316B09068909395088093940831C08091940821
S11316C0909195088160909395088093940827C021
S11316D080919408909195088260909395088093E6
S11316E094081DC08091940890919508846090930B
S11316F095088093940813C080919408909195085C
S11317008860909395088093940809C08091940808
S11317109091950880689093950880939408FF9120
S1131720EF91BF91AF919F918F917F916F915F9155
S11317304F913F912F910F900BBE0F900FBE0F90C2
S11317401F9018951F920F920FB60F9211240BB68B
S11317500F922F933F934F935F936F937F938F9346
S11317609F93AF93BF93EF93FF936CE270E080EC91
S113177099E00E944501813011F45598569AFF91E1
S1131780EF91BF91AF919F918F917F916F915F91F5
S11317904F913F912F910F900BBE0F900FBE0F9062
S11317A01F9018951F920F920FB60F9211248F93CA
S11317B05698579A1A9A83E085BD14BC8F910F905E
S11317C00FBE0F901F9018951F920F920FB60F9295
S11317D011240BB60F92DF92EF92FF920F931F9397
S11317E02F933F934F935F936F937F938F939F9325
S11317F0AF93BF93CF93DF93EF93FF9314BC809188
S113180093088F5F80939308809193088F3108F435
S113181061C3109293089091920880919A08981746
S113182010F010929208809191089091990889176C
S113183010F01092910880918C0881708093B50DFE
S113184080918C08827080931E0980918C0880712D
S11318508093CF0B8091B50D813029F480911E09BE
S1131860823009F40CC180918C0884708093CC0B75
S113187080918C0888708093DE0D8091CC0B84302D
S113188009F08DC08091100381111EC0E9E1F9E0D7
S113189087E0808311821282138214824091190995
S11318A050911A0960911B0970911C0980911D09BE
S11318B00E94880281E0809310038FE19EE40197E7
S11318C0F1F700C0000006C3A9E1B9E01C92E09161
S11318D09208F0E0EE0FFF1FEE0FFF1FE755F94FE0
S11318E04081518162817381AB016627772711960C
S11318F04C931197E0919208F0E0EE0FFF1FEE0F6A
S1131900FF1FE755F94F4081518162817381452F53
S1131910562F672F772712964C931297E0919208CF
S1131920F0E0EE0FFF1FEE0FFF1FE755F94F408168
S113193051816281738113964C931397809192081D
S11319408F5F14968C93C5982091920830E0809113
S11319509A0890E001972817390779F480918C0848
S1131960816080938C0880918C088B7F80938C0895
S113197010929208C59AC49A05C0809192088F5F0C
S1131980809392084091190950911A0960911B099A
S113199070911C0980911D090E9488029BC280914C
S11319A0DE0D883009F096C2A9E1B9E082E08C939B
S11319B0E0919108F0E0EE0FFF1FEE0FFF1FE75FCD
S11319C0F94F4081518162817381AB01662777278A
S11319D011964C931197E0919108F0E0EE0FFF1FE0
S11319E0EE0FFF1FE75FF94F4081518162817381E0
S11319F0452F562F672F772712964C931297E09115
S1131A009108F0E0EE0FFF1FEE0FFF1FE75FF94FA5
S1131A10408151816281738113964C931397809115
S1131A2091088F5F14968C93C5982091910830E0AB
S1131A308091990890E001972817390771F48091F3
S1131A408C08826080938C0880918C08877F8093B7
S1131A508C0810929108C59A05C0809191088F5FF7
S1131A60809391084091190950911A0960911B09BA
S1131A7070911C0980911D090E9488022BC28091DB
S1131A80B50D813009F098C080911E09823009F0AB
S1131A9093C08091CF0B803109F08EC0C598ECE9DA
S1131AA0F8E081E08083809192088F5F8183809148
S1131AB08A0881110FC0DF018CE08283E0919208D3
S1131AC094E0E99FF0011124EF5EFC4F80811396AE
S1131AD08C9341C080918A08813091F4ACE9B8E0DC
S1131AE08DE012968C931297E091920884E0E89F1F
S1131AF0F0011124EE5EFC4F808113968C932BC071
S1131B0080918A08823091F4ACE9B8E08EE01296B4
S1131B108C931297E091920894E0E99FF0011124CC
S1131B20ED5EFC4F808113968C9315C080918A08DA
S1131B30833089F4ACE9B8E08FE012968C93129765
S1131B40E091920884E0E89FF0011124EC5EFC4FE0
S1131B50808113968C9380918A08833041F410928B
S1131B608A08809192088F5F8093920805C08091C3
S1131B708A088F5F80938A082091920830E08091D0
S1131B809A0890E001972817390759F4C59AC49A1E
S1131B9080918C088F7E80938C0810928908109213
S1131BA0920860919C0870919D0880919E08909184
S1131BB09F080E9464058EC180919008813009F0CD
S1131BC089C18091A00881114BC0ECE9F8E083E061
S1131BD08083809191088F5F818380918D0881300B
S1131BE079F4E0919108F0E0EF50FB4F808181118E
S1131BF00DC0E0919108F0E0EC55F44F808106C0EF
S1131C00E0919D08F0E0ED55F44F808120911F098B
S1131C10213009F486E0ECE9F8E082831382209114
S1131C20910830E0892F90E001972817390719F4BB
S1131C301092910805C0809191088F5F809391085C
S1131C4060919C0870919D0880919E0890919F08D6
S1131C500E946405EFE1FEE43197F1F700C0000053
S1131C608091A008882311F084E001C081E0ECE9B0
S1131C70F8E08083809192088F5F81838091A0082F
S1131C80811106C0E0919208F0E0E75EFA4F80818E
S1131C9080919D088093CD0B80918E08813009F04E
S1131CA013C1E0919208F0E0E75EFA4F80819091D1
S1131CB01F099130D1F08330F1F028F4813009F11B
S1131CC0823029F12AC0853051F018F0863029F588
S1131CD00CC0ECE9F8E084E08283138223C0ECE9D1
S1131CE0F8E085E0828313821DC0ECE9F8E086E029
S1131CF08283138217C0ECE9F8E083E082831382C5
S1131D0011C0ECE9F8E088E0828313820BC0ECE9AF
S1131D10F8E088E08283138205C0ECE9F8E088E00B
S1131D20828313822091920830E080919A0890E097
S1131D3001972817390709F0B5C0109292080E943C
S1131D407202C0919A08C230D8F181E090E0AC01EF
S1131D50BC0161507109DB01AC50B04F3C91FC01F6
S1131D60EC50F04FE081F0E13F9F900111243E2FB1
S1131D703F70232BE82FE695F0E0E75BF64F2083D6
S1131D80FB01EF56FA4FE0812C91213031F0F0E065
S1131D90EA54F24F20812F5F2083FA01EF56FA4F65
S1131DA0E081DA01AC50B04F2C91213031F0F0E0F9
S1131DB0EA54F24F20812F5F208302968C1738F269
S1131DC010919908123008F472C020E030E081E0EC
S1131DD090E06894EE24E2F80F2EF5E0FF2EF02D4B
S1131DE000E0D82EAC01DC01AA54B24F7C91DC0196
S1131DF0A152B24F6C91761710F0DF2D01C0DE2D89
S1131E00B9016E5F7F4FDB01AA54B24FAC91FB0165
S1131E10E152F24FF081AF1710F0CF2D01C0CE2D5B
S1131E20DA01AF55B74FFC91F11101C0D02FDB019E
S1131E30AF55B74FFC91F11101C0C02FF0918D083F
S1131E40F130A1F4D901AF50BB4FFC91FF2321F035
S1131E50D901AF50BB4FDC91DA01AF50BB4FFC91BD
S1131E60FF2321F0DA01AF50BB4FCC91E0E1DE9FBC
S1131E70D0011124FC2FFF70AF2BED2DE695EF5F01
S1131E80F0E0E05EF64FA083F901EC55F44FD08307
S1131E90FA01EC55F44FC08302969B01811708F4B4
S1131EA0A0CF05C0809192088F5F809392086091C3
S1131EB09C0870919D0880919E0890919F080E94B3
S1131EC0640580E489BF06C080911F09813009F44C
S1131ED00CCF23CFFF91EF91DF91CF91BF91AF91C1
S1131EE09F918F917F916F915F914F913F912F912E
S1131EF01F910F91FF90EF90DF900F900BBE0F900A
S1131F000FBE0F901F9018951F920F920FB60F924D
S1131F1011240BB60F922F938F939F93EF93FF93FC
S1131F20E8E0FEE088EF818381B18BED95E00197D5
S1131F30F1F700C0000081B1918186FB882780F908
S1131F40890F818387EE93E00197F1F700C00000C9
S1131F5091B1218196FB882780F9880F820F8183B4
S1131F6087EE93E00197F1F700C0000091B1218161
S1131F7096FB882780F9880F880F820F818387EE6C
S1131F8093E00197F1F700C000008091CD0B90E041
S1131F9021812095FC01ED50F04F2083E091CD0B81
S1131FA0F0E0E057FA4FE081F0E0EF55F74F81E0C1
S1131FB0808319BEFF91EF919F918F912F910F9084
S1131FC00BBE0F900FBE0F901F901895EE0FFF1FC2
S1131FD00024001C0BBE0790F691E02D0994F894A0
S1051FE0FFCF2D
S1131FE20F070B030D0509010E060A020C04080073
S1131FF20000891112239B322446AD573665BF7403
S1132002488CC19D5AAFD3BE6CCAE5DB7EE9F7F8B2
S11320128110080193331A22A5562C47B7753E64E2
S1132022C99C408DDBBF52AEEDDA64CBFFF976E892
S113203202218B30100299132667AF763444BD55C2
S11320424AADC3BC588ED19F6EEBE7FA7CC8F5D972
S113205283310A2091121803A7772E66B5543C45A2
S1132062CBBD42ACD99E508FEFFB66EAFDD874C952
S113207204428D5316619F702004A9153227BB3682
S11320824CCEC5DF5EEDD7FC6888E1997AABF3BA32
S113209285520C4397711E60A1142805B3373A2662
S11320A2CDDE44CFDFFD56ECE9986089FBBB72AA12
S11320B206638F7214409D512225AB343006B91742
S11320C24EEFC7FE5CCCD5DD6AA9E3B8788AF19BF2
S11320D287730E6295501C41A3352A24B116380722
S11320E2CFFF46EEDDDC54CDEBB962A8F99A708BD2
S11320F2088481951AA793B62CC2A5D33EE1B7F002
S11321024008C919522BDB3A644EED5F766DFF7CB1
S1132112899400859BB712A6ADD224C3BFF136E0E1
S1132122C1184809D33B5A2AE55E6C4FF77D7E6C91
S11321320AA583B4188691972EE3A7F23CC0B5D1C1
S11321424229CB38500AD91B666FEF7E744CFD5D71
S11321528BB502A499961087AFF326E2BDD034C1A1
S1132162C3394A28D11A580BE77F6E6EF55C7C4D51
S11321720CC685D71EE597F42880A1913AA3B3B281
S1132182444ACD5B5669DF78600CE91D722FFB3E31
S11321928DD604C79FF516E4A9902081BBB332A261
S11321A2C55A4C4BD7795E68E11C680DF33F7A2E11
S11321B20EE787F61CC495D52AA1A3B03882B19341
S11321C2466BCF7A5448DD59622DEB3C700EF91FF1
S11321D28FF706E69DD414C5ABB122A0B992308321
S11321E2C77B4E6AD5585C49E33D6A2CF11E780FD1
S9030000FC
