S01400004947535F55534D5F56312E302E7372656395
S113000019C0E9C151C231C030C02FC02EC02DC0AB
S11300102CC02BC02AC029C028C027C026C025C098
S1130020CAC123C022C021C020C01FC01EC01DC021
S11300301CC01BC011241FBECFEFD2E0DEBFCDBF5A
S113004011E0A0E0B1E0E2ECF5E002C005900D9211
S1130050A830B107D9F721E0A8E0B1E001C01D92B2
S1130060A032B207E1F79ED0AAC2CACF83E084B916
S11300708CE087B980E38AB915B818B81BB884E056
S113008088B90895E9E6F0E0108280818260808377
S113009080818460808380818860808383E08DBBDD
S11300A0089514BC15BC81E080936E0085BB08954F
S11300B010920A0110921F01E9E1F1E0108211820D
S11300C0128213821482158208950F931F93CF9383
S11300D084E090E05ED2082F85E090E05AD2C82FE9
S11300E086E090E056D2402F50E060E070E09A0144
S11300F0112700274C2F50E060E070E0762F652F29
S1130100542F4427400F511F621F731F8A019B0104
S1130110080F111D211D311DC901B801CF911F9177
S11301200F91089587E090E034D280930B0189E029
S113013090E02FD2282F30E0A4EEB2E01ED2DC01F2
S1130140CB01845A944DAF4FBF4F26E0B695A79587
S1130150979587952A95D1F780930301909304018D
S1130160A0930501B09306018AE090E012D28E5C60
S1130170809302018BE090E00CD28F5F80930101A9
S11301808CE090E006D28F5F809300010895109276
S113019018011092170180E280937C0081E880931B
S11301A07A00089563DF6EDFF2DF7BDF8EDF60931A
S11301B01201709313018093140190931501B2DF1F
S11301C0789476DFC8E0D4E011E0809108018130B2
S11301D031F59091090120910A0140910A01E091C1
S11301E00A01E695E695E695F0E0E75EFE4F50815C
S11301F0892F30E046954695469568E0469F20193C
S11302003109112401C0880F2A95EAF7852B8083D0
S113021080910A018F5F80930A01109208018091F6
S11302200A01843290F215BC809119018F7090E01C
S1130230959587958330910509F483C0873091059E
S113024021F0029709F0B5C007C080910D018130FB
S113025009F4AFC018B8ACC03091190180911A01EB
S113026050911A0120911B0160911B0140911C01C6
S113027070E1879FC0011124992732953F70832B29
S1130280092E000CAA0BBB0B7C01DD24CC2480E1DD
S1130290289F900111243327852F82958F70F901AF
S11302A0E82BCF01092E000CAA0BBB0BBA2FA92FE8
S11302B0982F88278C0D9D1DAE1DBF1DF0E14F9F0B
S11302C0A0011124552762956F70462B052E000C52
S11302D0660B770B840F951FA61FB71F80930E0123
S11302E090930F01A0931001B0931101F0901C01A1
S11302F020911D014091120150911301609114014C
S11303007091150184179507A607B70709F051C026
S1130310F2948FE0F82230E1239FC0011124F82ADF
S1130320D8B987E090E035D180930B01F0920C01AD
S1130330F81621F06F2D87E090E033D110930D0172
S113034038C050910D015130A1F5209119019091BF
S11303501A0180911A0130911B01422F42954F706E
S113036060E1969F90011124242B90910C01291394
S113037020C082958F70843049F018F48330C1F026
S113038018C0853029F0863029F013C088B911C00F
S1130390C8B90FC080911601811104C0D8B9509317
S11303A0160107C0813029F4C8B91092160101C0A2
S11303B018B87EDE0ACF1F920F920FB60F92112447
S11303C08F9381E08093080116BC8F910F900FBE2C
S11303D00F901F9018951F920F920FB60F92112431
S11303E02F933F934F938F939F93EF93FF9315BC5A
S11303F016BCA8988AE08A95F1F780911F0180FDC8
S113040027C080911F01826080931F0120910A01FF
S113041090910A01E0910A01E695E695E695F0E0EF
S1130420E75EFE4F408130E096959695969588E07C
S1130430989F20193109112481E090E001C0880FB0
S11304402A95EAF7842B808381E08093090115C003
S113045080911F018D7F80931F0180910A018091FB
S11304600A01E0910A01E695E695E695F0E0E75E7B
S1130470FE4F808180831092090180910A018F5F71
S113048080930A0181E085BD16BC85BB83E08CBBEB
S1130490FF91EF919F918F914F913F912F910F90E9
S11304A00FBE0F901F9018951F920F920FB60F92C8
S11304B011242F933F934F938F939F93EF93FF9325
S11304C015BC16BCA8988AE08A95F1F780911F01A3
S11304D081FD27C080911F01816080931F012091BD
S11304E00A0190910A01E0910A01E695E695E695E4
S11304F0F0E0E75EFE4F408130E096959695969544
S113050088E0989F20193109112481E090E001C00E
S1130510880F2A95EAF7842B808381E08093090170
S113052015C080911F018E7F80931F0180910A0165
S113053080910A01E0910A01E695E695E695F0E0DE
S1130540E75EFE4F808180831092090180910A0149
S11305508F5F80930A0181E085BD16BC85BB83E073
S11305608CBBFF91EF919F918F914F913F912F9170
S11305700F900FBE0F901F901895A29FB001B39FCC
S1130580C001A39F01D0B29F700D811D1124911D44
S11305900895F999FECF12BC81BDF89A992780B5C8
S11305A00895262FF999FECF1FBA12BC81BD20BD34
S11305B00FB6F894FA9AF99A0FBE01960895F89432
S10505C0FFCF67
S10B05C20A03432201000000BA
S9030000FC
