S02400004D4547415F554152545F494E544552525550545F4558414D504C45312E7372656383
S113000031C04BC04AC049C048C047C046C045C0C3
S113001044C043C042C041C040C03FC03EC03DC0D8
S11300203CC03BC0ABC061C038C037C036C035C06F
S113003034C033C0C5C2C9C2CEC2D2C2D7C2DBC269
S1130040DFC2E3C257C256C255C254C253C252C2DF
S113005051C250C2B8C2BDC2C1C2C6C2CAC2CEC257
S1130060D2C2D7C211241FBECFEFD2E0DEBFCDBFB4
S113007011E0A0E0B1E0E0E6F6E002C005900D92E8
S1130080A430B107D9F721E0A4E0B1E001C01D928A
S1130090AE3CB207E1F796D1E1C2B2CFFC01918147
S11300A08081482F50E0228130E0215031094217ED
S11300B0530711F08F5F01C080E0981301C0FFCF98
S11300C08081A381B481A80FB11D6C938081482FD6
S11300D050E0228130E0215031094217530711F0DA
S11300E08F5F01C080E0808308951F920F920FB646
S11300F00F9211242F933F934F935F938F939F936A
S1130100EF93FF939091CA018091C901981721F14F
S11301109091CA018091C901981301C0FFCF8091C9
S1130120CA01E091CC01F091CD01E80FF11D90815D
S11301308091CA01482F50E02091CB0130E021503A
S113014031094217530711F08F5F01C080E080939B
S1130150CA019093C60005C08091C1008F7D809331
S1130160C100FF91EF919F918F915F914F913F91CA
S11301702F910F900FBE0F901F9018951F920F9202
S11301800FB60F9211242F933F934F935F936F9366
S11301907F938F939F93AF93BF93EF93FF9360915C
S11301A0C60084EC91E07ADFFF91EF91BF91AF91AB
S11301B09F918F917F916F915F914F913F912F917B
S11301C00F900FBE0F901F90189587E084B98FE7AA
S11301D087B980EE8AB915B818B81BB888B131E070
S11301E0832788B987EA91E60197F1F700C00000F8
S11301F088B122E0822788B9E7EAF1E63197F1F77E
S113020000C0000088B194E0892788B9E7EAF1E6E4
S11302103197F1F700C0000088B168E0862788B9FB
S1130220E7EAF1E63197F1F700C0000088B150E148
S1130230852788B9E7EAF1E63197F1F700C00000B5
S113024048B180E2482748B9E7EAF1E63197F1F787
S113025000C0000045B1432745B9E7EAF1E631970C
S1130260F1F700C0000045B1422745B9E7EAF1E6DD
S11302703197F1F700C0000045B1492745B9E7EAD5
S1130280F1E63197F1F700C000004BB140584BB98B
S1130290E7EAF1E63197F1F700C000007BB140E4F2
S11302A074277BB9E7EAF1E63197F1F700C0000063
S11302B07BB178277BB9E7EAF1E63197F1F700C023
S11302C00000E7EAF1E63197F1F700C0000078B1E9
S11302D0732778B9E7EAF1E63197F1F700C0000037
S11302E078B1722778B9E7EAF1E63197F1F700C0FF
S11302F0000078B1792778B9E7EAF1E63197F1F7A8
S113030000C0000078B1672768B9E7EAF1E63197E1
S1130310F1F700C0000068B1562758B9E7EAF1E6E2
S11303203197F1F700C0000058B1582758B9E7EAEF
S1130330F1E63197F1F700C0000055B1352735B922
S1130340E7EAF1E63197F1F700C0000035B1232761
S113035025B9E7EAF1E63197F1F700C0000025B1CD
S1130360922795B9E7EAF1E63197F1F700C000006A
S11303709BB190589BB9E7EAF1E63197F1F700C0D9
S113038000009BB149274BB9E7EAF1E63197F1F751
S113039000C000009BB189278BB987EA91E60197D9
S11303A0F1F700C0000015B818B81BB80895FC0197
S11303B090E0662321F08191980F6150FACF892F44
S11303C080950895CF93DF93CDB7DEB764970FB6CA
S11303D0F894DEBF0FBECDBFF8DEF8941092C500CE
S11303E08CE08093C4008091C00082608093C00040
S11303F088E98093C10086E08093C2008091C100A7
S113040080628093C1001E821F8280E4888724E476
S113041031E03A87298795E0FE013696DE01119690
S113042001900D929A95E1F795E0FE013196DE0177
S1130430169601900D929A95E1F795E0FE01369695
S1130440A9ECB1E001900D929A95E1F7188A198A06
S11304508A8B84E891E09C8B8B8B85E0FE017096FF
S1130460DE011B9601900D928A95E1F785E0FE016D
S11304703B96DE01509601900D928A95E1F785E056
S1130480FE017096A4ECB1E001900D928A95E1F71B
S11304907894F12C00E011E0F80101900020E9F7D4
S11304A03197E050F1408F2D90E08E179F07B0F404
S11304B0FC01E050FF4F6081F8949091CA01809153
S11304C0C901981305C08091C10080628093C10066
S11304D089EC91E0E3DD7894F394DECF01E111E05F
S11304E082E0F82EEE24E39490E2D92E20E1C22E8D
S11304F034E0B32E4091C7015091C8012091C60148
S113050030E021503109E4E0F1E09091C50180919F
S1130510C4019817D1F39091C5018091C401981337
S113052001C0FFCF8091C501DA01A80FB11D9C91D4
S11305308091C501682F70E06217730711F08F5F17
S113054001C080E08093C50191930E171F07E9F65F
S113055080910401833471F680910501833451F64E
S1130560809106018D3431F680910701833511F6AF
S1130570A0900C0168E084E091E019DFA812BACFE2
S1130580E0910B0180910801823009F444C018F411
S1130590813059F0AFCF833009F457C0843009F06B
S11305A0A9CF15B818B81BB8A5CF8E2F90E0FC01C1
S11305B03197E831F10508F09DCFE65EFF4F0994CD
S11305C088B18E2504C0409A95CF88B18F2588B90B
S11305D091CF419A8FCF88B18B25F9CF429A8ACF98
S11305E098B188E08927F3CF439A84CF88B18C25CA
S11305F0EECF449A7FCF88B18D25E9CF459A7ACF43
S113060085B18E2504C0289A75CF85B18F2585B90B
S113061071CF299A6FCFE33291F038F4E13269F067
S1130620E23209F067CF5E9A65CFE53261F048F0B7
S1130630E63209F05FCF5F985DCF5D9A5BCF5F9A3A
S113064059CF5D9857CF5E9855CFE13329F0E23307
S113065009F050CF2A984ECF2A9A4CCFF894FFCF66
S107066043434D00BF
S9030000FC
