:1000000019C020C01FC01EC01DC01CC01BC01AC00C
:1000100019C018C017C016C015C014C013C012C034
:1000200011C010C00FC00EC00DC00CC00BC00AC064
:1000300009C008C011241FBECFEFD4E0DEBFCDBF82
:1000400012D02AC0DDCF14B88CE087B980E38AB91A
:1000500015B818B81BB8089587E280937C0081E832
:1000600080937A000895EFDFF7DFEAE7F0E0A9E791
:10007000B0E021E030E080818064808380819C91C9
:10008000822F953608F4832F813011F4429AF3CFF2
:0C0090008111F1CF4298EFCFF894FFCF20
:00000001FF
