:100000005BC3000089C3000087C3000085C30000F4
:1000100083C3000081C300007FC300007DC30000D4
:100020007BC3000079C3000077C3000075C30000E4
:1000300073C3000071C300006FC300006DC30000F4
:100040006BC3000069C3000067C3000065C3000004
:100050000C94BF0B61C300005FC30000D6C3000057
:100060005BC300000C94B9120C94EF1255C300004E
:1000700053C3000051C300004FC300004DC3000034
:100080004BC3000049C3000047C3000045C3000044
:1000900043C3000041C300003FC300003DC3000054
:1000A0003BC3000039C3000037C3000035C3000064
:1000B00033C3000031C300002FC300002DC3000074
:1000C0002BC3000029C3000027C3000025C3000084
:1000D00023C3000021C300001FC300001DC3000094
:1000E0001BC30000B203B403B603B803BB03BD03D4
:1000F000C003C40300000000003E5B4F5B3E3E6B4C
:100100004F6B3E1C3E7C3E1C183C7E3C181C577DB1
:10011000571C1C5E7F5E1C00183C1800FFE7C3E7FD
:10012000FF0018241800FFE7DBE7FF30483A060E0F
:100130002629792926407F050507407F05253F5A56
:100140003CE73C5A7F3E1C1C08081C1C3E7F1422C6
:100150007F22145F5F005F5F06097F017F00668971
:10016000956A606060606094A2FFA29408047E04B7
:100170000810207E201008082A1C08081C2A0808DD
:100180001E101010100C1E0C1E0C30383E3830069D
:100190000E3E0E06000000000000005F0000000799
:1001A000000700147F147F14242A7F2A12231308C7
:1001B000646236495620500008070300001C2241A3
:1001C000000041221C002A1C7F1C2A08083E080847
:1001D00000807030000808080808000060600020F7
:1001E000100804023E5149453E00427F40007249DA
:1001F0004949462141494D331814127F102745457E
:1002000045393C4A49493141211109073649494993
:1002100036464949291E0000140000004034000001
:10022000000814224114141414140041221408026A
:10023000015909063E415D594E7C1211127C7F49DD
:100240004949363E414141227F4141413E7F494932
:1002500049417F090909013E414151737F0808085E
:100260007F00417F41002040413F017F081422412F
:100270007F404040407F021C027F7F0408107F3E89
:100280004141413E7F090909063E4151215E7F09F6
:10029000192946264949493203017F01033F40405D
:1002A000403F1F2040201F3F4038403F6314081448
:1002B0006303047804036159494D43007F41414180
:1002C0000204081020004141417F04020102044061
:1002D00040404040000307080020545478407F28E5
:1002E0004444383844444428384444287F385454DB
:1002F000541800087E090218A4A49C787F080404FE
:100300007800447D40002040403D007F102844009C
:1003100000417F40007C047804787C08040478382D
:1003200044444438FC1824241818242418FC7C085D
:10033000040408485454542404043F44243C4040DA
:10034000207C1C2040201C3C4030403C442810288D
:10035000444C9090907C4464544C440008364100D6
:100360000000770000004136080002010204023C50
:100370002623263C1EA1A161123A4040207A38541F
:100380005455592155557941225454784221555498
:10039000784020545579400C1E52721239555555EB
:1003A00059395454545939555454580000457C41D6
:1003B0000002457D420001457C407D1211127DF016
:1003C000282528F07C545545002054547C547C0A40
:1003D000097F4932494949323A4444443A324A4809
:1003E00048303A4141217A3A42402078009DA0A00D
:1003F0007D3D4242423D3D4040403D3C24FF24245F
:10040000487E4943662B2FFC2F2BFF0929F620C07D
:10041000887E090320545479410000447D413048CE
:10042000484A32384040227A007A0A0A727D0D1911
:10043000317D2629292F28262929292630484D4073
:1004400020380808080808080808382F10C8ACBA6F
:100450002F102834FA00007B000008142A142222EE
:10046000142A14085500550055AA55AA55AAFF5537
:10047000FF55FF000000FF00101010FF00141414BF
:10048000FF001010FF00FF1010F010F0141414FC07
:10049000001414F700FF0000FF00FF1414F404FC24
:1004A000141417101F10101F101F1414141F001005
:1004B0001010F0000000001F101010101F1010107E
:1004C00010F010000000FF1010101010101010108D
:1004D000FF10000000FF140000FF00FF00001F10CD
:1004E000170000FC04F414141710171414F404F487
:1004F0000000FF00F714141414141414F700F71478
:100500001414171410101F101F141414F4141010C6
:10051000F010F000001F101F0000001F140000006A
:10052000FC140000F010F01010FF10FF141414FF62
:10053000141010101F00000000F010FFFFFFFFFF5D
:10054000F0F0F0F0F0FFFFFF0000000000FFFF0FF1
:100550000F0F0F0F3844443844FC4A4A4A347E0295
:10056000020606027E027E02635549416338444416
:100570003C04407E201E2006027E020299A5E7A5CB
:10058000991C2A492A1C4C7201724C304A4D4D303C
:100590003048784830BC625A463D3E494949007E61
:1005A0000101017E2A2A2A2A2A44445F44444051F8
:1005B0004A444040444A51400000FF0103E080FFAC
:1005C000000008086B6B083612362436060F090F38
:1005D00006000018180000001010003040FF010154
:1005E000001F01011E00191D1712003C3C3C3C007D
:1005F00000000000010210202008081020401020F8
:1006000040800201020108040201010204081020D6
:1006100040808040201008040201800402018040D4
:10062000201008040201080402010102040810203D
:1006300040800102040810204080050505050705DB
:1006400008080808020202020A0A0808040404044E
:10065000010101010101010103030303030303037A
:10066000040707070C0C0C0C0C0C0C0C0202020209
:1006700006060606060606060B0B0B0B0B0B0B0BF2
:1006800000002200250028002B002E00310034003D
:1006900002010000050108010B01000021002400F7
:1006A00027002A002D003000330001010000040162
:1006B00007010A019003211311241FBECFEFD1E2DD
:1006C000DEBFCDBF00E00CBF12E0A0E0B2E0E6ED7F
:1006D000F9E200E00BBF02C007900D92A037B1070E
:1006E000D9F723E0A0E7B2E001C01D92AE35B20712
:1006F000E1F713E0CCE5D3E000E006C02197010963
:10070000802FFE010E94B513CA35D10780E008078B
:10071000A9F770D00C94E91473CC81E792E0D8C3A8
:10072000AF92CF92EF920F93A12C89E0C82E99E35C
:10073000E92E0BE028E347E366E381E792E099D3F3
:100740000F91EF90CF90AF9008958091700290E05C
:100750008830910548F5FC018827EE58FF4F8F4FF0
:100760000C94B51320E00AC020E003C027E00DC0C0
:1007700027E047E00BC020E004C027E040E002C0D3
:1007800027E047E067E003C020E040E060E081E769
:1007900092E019D44091B00250E06091B10270E053
:1007A0009C0181E792E040D18091B1028F5F803857
:1007B00019F08093B10208951092B1028091B002B5
:1007C0008F5F883019F08093B00208951092B002C4
:1007D000809170028F5F8093700264E670E080E029
:1007E00090E082D080917002883011F410927002F3
:1007F00008950895B3D0FDDF90DFC5EFD1E1A5DF07
:100800002097E9F30E94F511FACF1F920F920FB6CD
:100810000F9211242F933F938F939F93AF93BF9386
:100820008091B3029091B402A091B502B091B6024A
:100830003091B20223E0230F2D3720F40196A11D41
:10084000B11D05C026E8230F0296A11DB11D2093FE
:10085000B2028093B3029093B402A093B502B09316
:10086000B6028091B7029091B802A091B902B091FE
:10087000BA020196A11DB11D8093B7029093B802F0
:10088000A093B902B093BA02BF91AF919F918F919B
:100890003F912F910F900FBE0F901F9018953FB76B
:1008A000F8948091B7029091B802A091B902B091EA
:1008B000BA0226B5A89B05C02F3F19F00196A11DCD
:1008C000B11D3FBFBA2FA92F982F8827820F911DE6
:1008D000A11DB11DBC01CD0142E0660F771F881F2D
:1008E000991F4A95D1F708958F929F92AF92BF9228
:1008F000CF92DF92EF92FF926B017C01D0DF4B0130
:100900005C01C114D104E104F104F9F00E944E131A
:10091000C6DFDC01CB0188199909AA09BB09883E09
:100920009340A105B10568F321E0C21AD108E1089E
:10093000F10888EE880E83E0981EA11CB11CC1143A
:10094000D104E104F10421F7DCCFFF90EF90DF90B8
:10095000CF90BF90AF909F908F900895789484B57A
:10096000826084BD84B5816084BD85B5826085BDAB
:1009700085B5816085BDEEE6F0E080818160808391
:10098000E1E8F0E010828081826080838081816074
:100990008083E0E8F0E0808181608083E1EBF0E03B
:1009A000808184608083E0EBF0E0808181608083DF
:1009B000E1E9F0E0808182608083808181608083D2
:1009C000E0E9F0E0808181608083E1EAF0E080810D
:1009D00082608083808181608083E0EAF0E08081B2
:1009E00081608083E1E2F1E08081826080838081A8
:1009F00081608083E0E2F1E0808181608083EAE7CA
:100A0000F0E0808184608083808182608083808147
:100A1000816080838081806880831092C100089506
:100A200080E090E008950895CF92DF92EF92FF92D8
:100A30000F931F93CF93DF93DC0177FD22C11896AC
:100A40008D919C911997681779070CF01AC157FD81
:100A500018C11A968D919C911B97481759070CF055
:100A600010C15596EC91559714968D919C911597C0
:100A7000E23059F0E330C9F0E13001F5FC01319783
:100A8000E41BF50BAB01BF0119C0FC013197EF016D
:100A9000C61BD70BBE011696ED91FC9117973197A7
:100AA000EF01C41BD50BAE0109C01696ED91FC9168
:100AB00017973197E61BF70BBA01AF018901012F98
:100AC000112702950F70F02EE901CC0FCD2FCC1F0E
:100AD000DD0BD195EC2FEF70EE2E36952795E22F9A
:100AE000EF70DE2E5E96EC915E97F0E001701127BC
:100AF0003C2F317021704E175F070CF06CC05F9671
:100B0000EC915F97ED01CE0FD11DCE0FD11D489F07
:100B1000F001499FF00D589FF00D1124AF01440FD3
:100B2000551FE40FF51F6E0F7F1FEA8DFB8DE60F3B
:100B3000F71F880F991FEF01C80FD91F88818C7F7D
:100B40008883012B59F01496CD91DC911597CC0F29
:100B5000DD1FCE0FDF1F888181608883332359F02A
:100B60001496CD91DC911597CC0FDD1FCE0FDF1FB2
:100B70008881826088831496CD91DC911597CE0F81
:100B8000DF1F8881222331F08160888323E030E0F9
:100B900092E01AC08E7FF9CF80838E2D892319F0C1
:100BA0008081886080838D2D892319F08081806108
:100BB000808314964D915C911597E40FF51F990F62
:100BC0002150310909F45DC08081837E4F2D492376
:100BD00019F38460E1CF5F96CC905F97ED01CC0D67
:100BE000D11DCC0DD11D4E1B5F0B489FF001499FBD
:100BF000F00D589FF00D1124CF01880F991FE80FB9
:100C0000F91F6E0F7F1FEA8DFB8DE60FF71F8081A6
:100C10008C7F80831496CD91DC911597CE0FDF1FCA
:100C20008881012B11F0826001C08D7F888333237E
:100C300019F0808181608083222319F08081826095
:100C4000808323E030E092E080818F714F2D492333
:100C500009F0806280838E2D892319F08081806461
:100C600080838D2D892319F080818068808314967C
:100C70004D915C911597E40FF51F990F21503109A3
:100C800019F7DF91CF911F910F91FF90EF90DF90B7
:100C9000CF9008952F923F924F925F926F927F92E2
:100CA0008F929F92AF92BF92CF92DF92EF92FF927C
:100CB0000F931F93CF93DF93CDB7DEB73C01162F71
:100CC000D42EF22EB82CDC015E966C932E88269ED4
:100CD000C00111241C01220C331C280E391E4101B5
:100CE000BB2011F0880C991CC4010E94BD132C017B
:100CF000F301938F828F009709F4A8C0A40160E0EC
:100D000070E00E94E214BB2011F0420C531CD3018E
:100D10005D965C924E925C97D796DC92D797D89668
:100D2000FC92D897D9960C93D997D496EC92D497F5
:100D3000D596CC92D597D696AC92D697EE2DF0E07C
:100D4000EC50FA4FE4919D96EC939D978C2D90E09A
:100D5000FC01E65CF94FE491F0E0EE0FFF1FE05874
:100D6000F94F25913491F30132A321A3FC01EC50FA
:100D7000FA4F84919E968C939E978A2D90E0FC0169
:100D8000E65CF94FE491F0E0EE0FFF1FE058F94FF9
:100D900025913491F30134A323A3FC01EC50FA4FC5
:100DA00084919F968C939F978D2D90E0FC01E65C3B
:100DB000F94FE491F0E0EE0FFF1FE058F94F259155
:100DC0003491F30136A325A3FC01EC50FA4F849132
:100DD000D0968C93D0978F2D90E0FC01E65CF94F74
:100DE000E491F0E0EE0FFF1FE058F94F25913491A8
:100DF000F30130A727A3FC01EC50FA4F8491D19660
:100E00008C93D197802F90E0FC01E65CF94FE49140
:100E1000F0E0EE0FFF1FE058F94F25913491F301F8
:100E200032A721A7FC01EC50FA4F8491D2968C9303
:100E3000D29783E0DC968C93DC971150DB961C9361
:100E4000DB9790961C9290975F961C92DF91CF91C2
:100E50001F910F91FF90EF90DF90CF90BF90AF90D8
:100E60009F908F907F906F905F904F903F902F90CA
:100E700008958F92AF92CF92DF92EF92FF920F93ED
:100E80001F93CF93DF93EC01162FF42ED22E48E060
:100E900050E060E870E05CD78AE092E09983888354
:100EA00088E08F938A2CAC2CCE2CE02E0D2D2F2D8C
:100EB000412F64E0CE01EEDE0F90DF91CF911F91C4
:100EC0000F91FF90EF90DF90CF90AF908F900895AB
:100ED000CF93DF93EC011F8E8F8DE1E0F0E0E81BF4
:100EE000F1093D96EE0FFF1FEC0FFD1F80819181F0
:100EF0009EAF8DAFD093BC02C093BB0261E08CA9C2
:100F00000E94791395B18DA58095892385B961E0FB
:100F10008DA90E947913E9A1FAA190818EA58095EF
:100F20008923808361E08EA90E947913EBA1FCA143
:100F300090818FA5892B808361E08FA90E9479130E
:100F4000EDA1FEA1908188A980958923808361E02D
:100F500088AD0E947913EFA1F8A5908189A98095A9
:100F60008923808361E089AD0E947913E9A5FAA500
:100F700090818AA98095892380838E8D893058F04D
:100F800061E08AAD0E947913EBA5FCA590818BA945
:100F90008095892380838CEF81B912B882E0809399
:100FA000800089E18093810084E690E0909387003F
:100FB0008093860080916F00816080936F007894A9
:100FC000DF91CF910895822F877034E0839FC00115
:100FD0001124267030E035952795282B392B862F44
:100FE00090E0982F88279295990F907E822B932BD3
:100FF000242F2770922B20E2429FA0011124552715
:10100000842B952B667070E0762F6627770F770F0D
:10101000862B972B0895FF920F931F93CF93DF9307
:10102000DC019396ED91FC91949790819F968C9121
:101030009F97892B80839196ED91FC919297908157
:101040009E968C919E97892B80835E963C915E97AD
:10105000393018F480E991E002C088EC90E0DC9629
:101060002C91DC9788589F4F02C0880F991F2A95B2
:10107000E2F7CC97DC962C91DC972F5FDC962C93D3
:10108000DC97243098F1DC961C92DC97DB962C914F
:10109000DB972F5FDB962C93DB97231708F47DC03B
:1010A000DB961C92DB9790962C919097222359F017
:1010B0005F963C915F9721E0231B5F962C935F978F
:1010C00090961C9290975F962C915F97E1E0F0E0EC
:1010D000E21BF1093D96EE0FFF1FEA0FFB1F208177
:1010E0003181DE963C932E93DD9757C0DC962C9190
:1010F000DC97213009F051C0DB963C91DB97959647
:10110000ED91FC919697D0962C91D09730FF03C02B
:101110003081232B03C03081209523232083DB964D
:101120003C91DB979796ED91FC919897D1962C91F5
:10113000D19731FF03C03081232B03C0308120952C
:1011400023232083DB963C91DB979996ED91FC91CC
:101150009A97D2962C91D29732FF03C03081232BDD
:1011600003C030812095232320835E962C915E97C7
:10117000293098F0DB963C91DB979B96ED91FC91A2
:101180009C97D3962C91D39733FF03C03081232BA8
:1011900003C03081209523232083DD96ED91FC91BF
:1011A000DE979093870080938600109285001092BE
:1011B00084009396CD91DC91949798819F968C9121
:1011C0009F978095892388839196CD91DC91929702
:1011D00098819E968C919E9780958923888325B1CE
:1011E0009D969C919D97922BDC968C91DC9781111A
:1011F00002C030E08DC2019002B895B925B90190C6
:1012000002B895B925B9019002B895B925B90190F0
:1012100002B895B925B9019002B895B925B90190E0
:1012200002B895B925B9019002B895B925B90190D0
:1012300002B895B925B9019002B895B925B90190C0
:1012400002B895B925B9019002B895B925B90190B0
:1012500002B895B925B9019002B895B925B90190A0
:1012600002B895B925B9019002B895B925B9019090
:1012700002B895B925B9019002B895B925B9019080
:1012800002B895B925B9019002B895B925B9019070
:1012900002B895B925B9019002B895B925B9019060
:1012A00002B895B925B9019002B895B925B9019050
:1012B00002B895B925B9019002B895B925B9019040
:1012C00002B895B925B9019002B895B925B9019030
:1012D00002B895B925B9019002B895B925B9019020
:1012E00002B895B925B9019002B895B925B9019010
:1012F00002B895B925B9019002B895B925B9019000
:1013000002B895B925B9019002B895B925B90190EF
:1013100002B895B925B9019002B895B925B90190DF
:1013200002B895B925B9019002B895B925B90190CF
:1013300002B895B925B9019002B895B925B90190BF
:1013400002B895B925B9019002B895B925B90190AF
:1013500002B895B925B9019002B895B925B901909F
:1013600002B895B925B9019002B895B925B901908F
:1013700002B895B925B9019002B895B925B901907F
:1013800002B895B925B9019002B895B925B901906F
:1013900002B895B925B9019002B895B925B901905F
:1013A00002B895B925B9019002B895B925B901904F
:1013B00002B895B925B9019002B895B925B901903F
:1013C00002B895B925B9019002B895B925B901902F
:1013D00002B895B925B9019002B895B925B901901F
:1013E00002B895B925B9019002B895B925B901900F
:1013F00002B895B925B9019002B895B925B90190FF
:1014000002B895B925B9019002B895B925B90190EE
:1014100002B895B925B9019002B895B925B90190DE
:1014200002B895B925B9019002B895B925B90190CE
:1014300002B895B925B9019002B895B925B90190BE
:1014400002B895B925B9019002B895B925B90190AE
:1014500002B895B925B9019002B895B925B901909E
:1014600002B895B925B9019002B895B925B901908E
:1014700002B895B925B9019002B895B925B901907E
:1014800002B895B925B9019002B895B925B901906E
:1014900002B895B925B9019002B895B925B901905E
:1014A00002B895B925B9019002B895B925B901904E
:1014B00002B895B925B9019002B895B925B901903E
:1014C00002B895B925B9019002B895B925B901902E
:1014D00002B895B925B9019002B895B925B901901E
:1014E00002B895B925B9019002B895B925B901900E
:1014F00002B895B925B9019002B895B925B90190FE
:1015000002B895B925B9019002B895B925B90190ED
:1015100002B895B925B9019002B895B925B90190DD
:1015200002B895B925B9019002B895B925B90190CD
:1015300002B895B925B9019002B895B925B90190BD
:1015400002B895B925B9019002B895B925B90190AD
:1015500002B895B925B9019002B895B925B901909D
:1015600002B895B925B9019002B895B925B901908D
:1015700002B895B925B9019002B895B925B901907D
:1015800002B895B925B9019002B895B925B901906D
:1015900002B895B925B9019002B895B925B901905D
:1015A00002B895B925B9019002B895B925B901904D
:1015B00002B895B925B9019002B895B925B901903D
:1015C00002B895B925B9019002B895B925B901902D
:1015D00002B895B925B9019002B895B925B901901D
:1015E00002B895B925B9019002B895B925B901900D
:1015F00002B895B925B914964D915C911597403470
:10160000510509F080C0019002B895B925B9019043
:1016100002B895B925B9019002B895B925B90190DC
:1016200002B895B925B9019002B895B925B90190CC
:1016300002B895B925B9019002B895B925B90190BC
:1016400002B895B925B9019002B895B925B90190AC
:1016500002B895B925B9019002B895B925B901909C
:1016600002B895B925B9019002B895B925B901908C
:1016700002B895B925B9019002B895B925B901907C
:1016800002B895B925B9019002B895B925B901906C
:1016900002B895B925B9019002B895B925B901905C
:1016A00002B895B925B9019002B895B925B901904C
:1016B00002B895B925B9019002B895B925B901903C
:1016C00002B895B925B9019002B895B925B901902C
:1016D00002B895B925B9019002B895B925B901901C
:1016E00002B895B925B9019002B895B925B901900C
:1016F00002B895B925B9019002B895B925B90190FC
:1017000002B895B925B9DE96FC93EE93DD9731C00A
:10171000632F70E014964D915C91159764177507CF
:1017200044F58B01040F151F4E0F5F1FEA01C00F18
:10173000D11F488184E0489FA0011124C42FCC70A0
:10174000FC2E0E0F1F1FE8018881D0E18D9FA001A4
:10175000112440734F29EF01C60FD71F688180E421
:10176000689FB0011124462B42B995B925B93F5F56
:10177000CFCFDF91CF911F910F91FF9008951F92CE
:101780000F920FB60F9211240BB60F922F933F9327
:101790004F935F936F937F938F939F93AF93BF9379
:1017A000EF93FF938091BB029091BC0234DC86B32F
:1017B00086BBFF91EF91BF91AF919F918F917F91E8
:1017C0006F915F914F913F912F910F900BBE0F90B2
:1017D0000FBE0F901F9018959B01215031092E3F8D
:1017E0003F4FF0F0DC015F962C915F975E963C9145
:1017F0005E971496ED91FC9115973E9FA0013F9F37
:10180000500D1124FA01EE0FFF1F4E0F5F1FFC0158
:10181000E20FF11DE20FF11D828D938D0C94E21405
:1018200098C12F923F924F925F926F927F928F92C8
:101830009F92AF92BF92CF92DF92EF92FF920F935F
:101840001F93CF93DF9300D000D0CDB7DEB72C012C
:101850007E836D836A015901C801FC82EB824801D5
:10186000841A950A97FE03C09194819491083501DA
:101870002D813E81621A730A77FE03C071946194D0
:101880007108681479045CF43A2D2B2D5C01832FC8
:10189000922F3D812E81DE82CD82C32ED22EAD814C
:1018A000BE81AA16BB065CF43C2D2D2D6C01832F46
:1018B000922F3D812E81BE82AD82A32EB22E850154
:1018C0002D813E81021B130B1C012C183D0837FE95
:1018D00003C0319421943108780117FF03C03FEF12
:1018E000E31AF30AF594E794C816D9062CF08FEFA3
:1018F0009FEF9A83898304C0A1E0B0E0BA83A983F3
:101900002D813E81A216B30624F1D201ED91FC9106
:101910000484F585E02D2B813C816814790424F43E
:101920004D815E81B60103C0A6016D817E81C20139
:101930001995E218F308F7FE06C029813A81C20E14
:10194000D31EE00EF11E8D819E8101969E838D83B4
:10195000D7CF26960FB6F894DEBF0FBECDBFDF916E
:10196000CF911F910F91FF90EF90DF90CF90BF909C
:10197000AF909F908F907F906F905F904F903F902F
:101980002F900895DC01ED91FC910084F185E02D0C
:1019900019940F931F93DC01ED91FC91048CF58D4C
:1019A000E02D19951F910F9108950F931F93DC015E
:1019B000ED91FC91068CF78DE02D19951F910F91FB
:1019C0000895EF92FF920F931F93DC01ED91FC912C
:1019D00000A0F1A1E02D19951F910F91FF90EF90BC
:1019E000089508958F929F92AF92BF92CF92DF9207
:1019F000EF92FF920F931F93CF93DF93EC015B0164
:101A00004A0169017801E881F9810284F385E02DBA
:101A10001995C80CD91C860101501109E881F9817A
:101A20000488F589E02D9501A401B501CE01199531
:101A3000E881F9810688F789E02DCE01DF91CF9109
:101A40001F910F91FF90EF90DF90CF90BF90AF90DC
:101A50009F908F9019948F929F92AF92BF92CF9246
:101A6000DF92EF92FF920F931F93CF93DF93EC01DE
:101A70005B014A016901E881F9810284F385E02D67
:101A8000199595012C0D3D1D21503109E881F981F1
:101A90000488F589E02D78018401A401B501CE0107
:101AA0001995E881F9810688F789E02DCE01DF914B
:101AB000CF911F910F91FF90EF90DF90CF90BF904B
:101AC000AF909F908F9019944F925F926F927F92F8
:101AD0008F929F92AF92BF92CF92DF92EF92FF923E
:101AE0000F931F93CF93DF936C012B015A013901A0
:101AF0004801DC01ED91FC910284F385E02D1995FC
:101B0000E201640C751CD601ED91FC91C615D70558
:101B10005CF40088F189E02D87019401A501BE01E4
:101B2000C60119952196EFCF0688F789E02DC601E9
:101B3000DF91CF911F910F91FF90EF90DF90CF90A9
:101B4000BF90AF909F908F907F906F905F904F90DD
:101B50001994EF92FF920F931F93DC011A960D9147
:101B60001C911B9718962D913C911997ED91FC9122
:101B700000A0F1A1E02D7B0140E050E060E070E0CA
:101B800019951F910F91FF90EF9008958F929F925A
:101B9000AF92BF92CF92DF92EF92FF920F931F937B
:101BA000CF93DF934C016B015A01E901DC01ED9108
:101BB000FC916217730781F40417150724F48B2D29
:101BC0005801042F182F0A191B0998012F5F3F4F46
:101BD000048CF58DE02D12C04017510709F526172A
:101BE000370724F48D2D6901C62FD82F9E012C199B
:101BF0003D092F5F3F4F068CF78DE02D8701A50132
:101C0000B601C4011995DF91CF911F910F91FF90FB
:101C1000EF90DF90CF90BF90AF909F908F900895FE
:101C20000284F385E02D1995D401ED91FC9104888F
:101C3000F589E02D9E01A501B601C4011995D401D5
:101C4000ED91FC910688F789E02DC401DF91CF91D9
:101C50001F910F91FF90EF90DF90CF90BF90AF90CA
:101C60009F908F9019946F927F928F929F92AF92D4
:101C7000BF92CF92DF92EF92FF920F931F93CF9379
:101C8000DF93EC014B015A0169013801E881F981C8
:101C90000284F385E02D1995E881F9810288F389A2
:101CA000E02D87019601A501B401CE011995A5018A
:101CB000460D571D41505109E881F9810288F38989
:101CC000E02D9601B401CE011995E881F9810088D3
:101CD000F189E02D9301A501B401CE011995C80C3D
:101CE000D91CB60161507109E881F9810088F18938
:101CF000E02D9301A501CE011995E881F9810688AF
:101D0000F789E02DCE01DF91CF911F910F91FF90C8
:101D1000EF90DF90CF90BF90AF909F908F907F908B
:101D20006F9019940895FC016370658B848195818F
:101D300026813781613039F0633029F091878087BF
:101D40003387228708953187208793878287089574
:101D5000FC011382128286E392E091838083758373
:101D60006483578346837187608753874287158AC8
:101D7000158614861786168681E0848B2FEF3FEF39
:101D8000338B228B318B208B868B178A118E108E92
:101D900008952F923F924F925F926F927F928F920F
:101DA0009F92AF92BF92CF92DF92EF92FF920F93EA
:101DB0001F93CF93DF93CDB7DEB76B970FB6F89431
:101DC000DEBF0FBECDBF9B8F8A8F5B011A01D22E63
:101DD0001F830E833701C982DC0158962D913C91F7
:101DE00059972115310509F0E6C018968D919C91FF
:101DF0001997681779070CF0CDC11A968D919C91AF
:101E00001B97481759070CF0C5C18C2C912CFB016E
:101E100026E0C29EE00DF11D1124FB87EA871E1605
:101E20001F060CF0B7C1A40183E0440F551F8A952B
:101E3000E1F75D874C87CA01820D931D18161906BC
:101E40000CF0A8C157968C91811104C05FEA5D1512
:101E500008F4D394AA8DBB8DED91FC911197028467
:101E6000F385E02DCD011995B5E0DB9EC00111246D
:101E7000F5013596FF87EE872501BB82AA829C017A
:101E80002A193B09398B288BA101485F5F4F5B8B77
:101E90004A8BE889F989E40DF51DEC50FF4F549108
:101EA00058873D822C826101888580FF13C0AA8DEE
:101EB000BB8DED91FC91B981B13031F40484F5858D
:101EC000E02D2E813F8116C00684F785E02DEE803F
:101ED000FF801AC0EE81FF81E615F705F1F0AA8DAB
:101EE000BB8DED91FC91B981B13051F40484F5853D
:101EF000E02D9301A601B2018A8D9B8D19950DC02D
:101F00000684F785E02D7301840194014C815D8185
:101F10006A817B818A8D9B8D1995E885E695E88796
:101F20002C813D81280D391D3D832C833FEFC31A41
:101F3000D30A4A895B89C416D50609F0B5CF8A81D0
:101F40009B81880D991D9B838A839FEF491A590AAB
:101F5000AE85BF854A165B0609F09BCFEE81FF81F7
:101F6000E615F70509F4F4C0EA8DFB8DA081B18177
:101F7000F981F13079F4B5016B5F7F4F5096ED91A7
:101F8000FC915197830128E030E0A1018A8D9B8D5F
:101F90001995DEC06A857B85681979091E96ED91D1
:101FA000FC911F9773010C851D859401A1018A8DF9
:101FB0009B8D1995CDC0F9013496E491DE1AF90193
:101FC000329685919491B7E0DB9E800D911D11248E
:101FD000F901259134913B8B2A8BFC012591349199
:101FE0002901FC013296C490319634913C87329697
:101FF00014913196D4904981423058F0612E012ECF
:10200000000C77088D2D0D2C000C990B9987888773
:1020100004C019861886612C712CAA8DBB8DED9198
:10202000FC9111970284F385E02DCD011995B981BA
:102030008B2E912C689CC001699C900D789C900D12
:102040001124FC01EA0DFB1DF98BE88B1A82712C1F
:10205000612CE12F110FFF0B95012E0F3F1F3B87C6
:102060002A87AC0CB11CA5014E0F5F1F5F8B4E8BF6
:10207000C1018D0D911DD7FC9A95998F888F9C85F4
:10208000691608F065C0862D90E048855985480F8F
:10209000591F489D9001499D300D589D300D1124C8
:1020A000D101A20FB31FBF87AE87AA84BB84E88982
:1020B000F989FD83EC83DA80FA85DF1A288D398D62
:1020C000280F391F3D8B2C8B8D2D8A0D4E895F89F2
:1020D000A416B506C1F1877041F4C2010196EA89E0
:1020E000FB89E40DF51D74902C0177FE21C0AA8DAB
:1020F000BB8DED91FC91B981B13061F40484F5851B
:10210000E02D2E813F814C895D89B5018A8D9B8DA3
:1021100019950EC00684F785E02DEE80FF808401BE
:1021200094014E855F856C817D818A8D9B8D19958B
:10213000770CEC81FD81E80DF91DFD83EC83FFEF49
:10214000AF1ABF0AC1CF2A812C0D2A83639497CF7F
:10215000AA8DBB8DED91FC9111970688F789E02D32
:10216000CD016B960FB6F894DEBF0FBECDBFDF91E9
:10217000CF911F910F91FF90EF90DF90CF90BF9084
:10218000AF909F908F907F906F905F904F903F9017
:102190002F9019946B960FB6F894DEBF0FBECDBF8B
:1021A000DF91CF911F910F91FF90EF90DF90CF9033
:1021B000BF90AF909F908F907F906F905F904F9067
:1021C0003F902F900895AF92BF92CF92EF92FF92DF
:1021D0000F931F93CF93DF93EC01262F888D998D5A
:1021E000009709F03FC06A3059F41D861C862C897F
:1021F0008E859F8538E0239F800D911D112440C05E
:102200006D3009F4A8C08E898823C1F03C898C8583
:102210009D8546E0349F800D911D11244885598588
:10222000481759075CF41D861C868E859F8548E0FB
:10223000349F800D911D11249F878E87EA88FB882B
:10224000088919894E855F856C857D85CC88CE018E
:10225000A0DD2C898C859D8536E0239F800D911D06
:10226000112442C06A3079F41D861C862C89FC0139
:102270003696E4918E859F852E9F800D911D1124A9
:102280009F878E8768C06D3009F465C0FC01349665
:102290003491631708F45FC03196E491E61708F4AF
:1022A0005AC0FC01329665917491422F50E0431B55
:1022B000510937E0349F5001359FB00C1124A60E10
:1022C000B71EF501329634913196E491332311F023
:1022D000E1110DC0F5013496E4912C898C859D8522
:1022E000E29F800D911D11249D878C8734C0F501DC
:1022F000359644915E89552311F16C89E32FF0E006
:10230000E40FF11D47FDFA956E9FD0016F9FB00D50
:1023100011244C855D854A0F5B1FE885F985E4171C
:10232000F5076CF41D861C86FC013696E4918E85BB
:102330009F856E9F800D911D11249F878E87EA884F
:10234000FB88088919894E855F856C857D85CC88D9
:10235000CE011FDDBFCF81E090E0DF91CF911F91D3
:102360000F91FF90EF90CF90BF90AF90089526D33C
:10237000FC01918D228D892F90E0805C9F4F821B04
:1023800091098F7399270895FC01918D828D98177B
:1023900031F0828DE80FF11D858D90E008958FEF6B
:1023A0009FEF0895FC01918D828D981761F0828DC9
:1023B000DF01A80FB11D5D968C91928D9F5F9F7379
:1023C000928F90E008958FEF9FEF0895FC01538D59
:1023D000448D252F30E0842F90E0821B930B5417FF
:1023E00010F0CF9608950197089588E193E1892B25
:1023F00039F080E090E0892B19F01AD1811125C0C5
:1024000080E090E0892B41F080E090E0892B21F082
:102410000E94000081111CC080E090E0892B41F0F7
:1024200080E090E0892B21F00E940000811113C010
:1024300080E090E0892BA1F080E090E0892B81F092
:102440000E94000081110AC008950E940000D8CFA8
:102450000E940000E1CF0E940000EACF0C9400002F
:102460000895FC01848DDF01A80FB11DA35ABF4F51
:102470002C91848D90E001968F739927848FA68983
:10248000B7892C93A089B1898C9180648C93938DAA
:10249000848D981306C00288F389E02D80818F7D9A
:1024A00080830895EF92FF920F931F93CF93DF9352
:1024B000EC0181E0888F9B8D8C8D981305C0E88995
:1024C000F989808185FD23C0F62E0B8D10E00F5F0A
:1024D0001F4F0F731127E02E8C8DE8120BC00FB623
:1024E00007FCFACFE889F989808185FFF5CFCE0115
:1024F000B8DFF2CF8B8DFE01E80FF11DE35AFF4FDD
:10250000F0820B8FEA89FB898081806207C0EE89A7
:10251000FF896083E889F98980818064808381E014
:1025200090E0DF91CF911F910F91FF90EF90089570
:10253000CF93DF93EC01888D8823C1F0EA89FB8972
:10254000808185FD05C0A889B9898C9186FD0EC062
:102550000FB607FCF5CF808185FFF2CFA889B98936
:102560008C9185FFEDCFCE017CDFE8CFDF91CF915D
:1025700008951F920F920FB60F9211240BB60F926F
:102580002F938F939F93EF93FF93E091CD02F09160
:10259000CE028081E091D302F091D40282FD12C07C
:1025A00090818091D6028F5F8F732091D70282171E
:1025B00051F0E091D602F0E0E354FD4F958F809307
:1025C000D60201C08081FF91EF919F918F912F9151
:1025D0000F900BBE0F900FBE0F901F9018951F927B
:1025E0000F920FB60F9211240BB60F922F933F93B9
:1025F0004F935F936F937F938F939F93AF93BF930B
:10260000EF93FF938DEB92E02CDFFF91EF91BF9161
:10261000AF919F918F917F916F915F914F913F917A
:102620002F910F900BBE0F900FBE0F901F9018951B
:102630008DEB92E09DDE21E0892B09F420E0822FD2
:102640000895EDEBF2E01382128288EE93E0A0E0B1
:10265000B0E084839583A683B78382E692E091837A
:10266000808385EC90E09587848784EC90E0978761
:10267000868780EC90E0918B808B81EC90E0938B4F
:10268000828B82EC90E0958B848B86EC90E0978B2C
:10269000868B118E128E138E148E08950895CF920C
:1026A000DF92EF92FF920F931F93CF93DF936C0112
:1026B0007A018B01C0E0D0E0CE15DF0581F0D801B2
:1026C0006D918D01D601ED91FC910190F081E02D8D
:1026D000C6011995892B11F02196EECF7E01C70115
:1026E000DF91CF911F910F91FF90EF90DF90CF90EE
:1026F0000895CF93DF9390E0FC01EC50FA4F2491C2
:10270000FC01E65CF94F8491882361F190E0880F29
:10271000991FFC01E656F94FC591D491FC01E05890
:10272000F94FA591B491611109C09FB7F8948881C0
:10273000209582238883EC912E230BC0623061F4B4
:102740009FB7F8948881322F309583238883EC914A
:102750002E2B2C939FBF06C08FB7F894E8812E2BA9
:1027600028838FBFDF91CF910895EE0FFF1F881F41
:102770008BBF0790F691E02D19940F931F93CF9381
:10278000DF938230910510F482E090E0E0915C03E9
:10279000F0915D0320E030E0A0E0B0E0309719F167
:1027A000408151810281138148175907C8F084176D
:1027B000950769F4109731F012960C9312971396BF
:1027C0001C9327C000935C0310935D0322C0211566
:1027D000310519F04217530718F49A01BD01EF01B2
:1027E000DF01F801DBCF21153105F9F0281B390B8A
:1027F0002430310580F48A819B816115710521F0B7
:10280000FB019383828304C090935D0380935C03F8
:10281000FE01329644C0FE01E20FF31F81939193B3
:1028200022503109398328833AC020915A033091CC
:102830005B03232B41F42091020230910302309379
:102840005B0320935A03209100023091010221156D
:10285000310541F42DB73EB7409104025091050275
:10286000241B350BE0915A03F0915B03E217F30749
:10287000A0F42E1B3F0B2817390778F0AC014E5FF0
:102880005F4F2417350748F04E0F5F1F50935B03CF
:1028900040935A038193919302C0E0E0F0E0CF01AE
:1028A000DF91CF911F910F910895CF93DF93009700
:1028B00009F481C0FC01329713821282A0915C035B
:1028C000B0915D03109781F420813181820F931FB5
:1028D00020915A0330915B032817390751F5F09383
:1028E0005B03E0935A0367C0ED0120E030E0CE17B0
:1028F000DF0740F44A815B819E0141155105F1F0EB
:10290000EA01F5CFD383C28340815181840F951FA3
:10291000C817D90759F488819981840F951F0296A9
:10292000918380838A819B819383828321153105E2
:1029300029F4F0935D03E0935C033DC0E901FB8360
:10294000EA8349915991C40FD51FEC17FD0761F433
:1029500080819181840F951F0296E9019983888374
:10296000828193819B838A83E0E0F0E012968D91CF
:102970009C911397009719F0FD01DC01F7CF8D9121
:102980009C9111979D012E5F3F4F820F931F2091C5
:102990005A0330915B032817390769F4309729F4FB
:1029A00010925D0310925C0302C013821282B093F6
:1029B0005B03A0935A03DF91CF91089581E090E0EB
:1029C000F89407C0DC0101C06D9341505040E0F71E
:0629D0000895F894FFCF0A
:1029D60000005E03200000000000E3104F13100506
:1029E60013051405F10CC20CE10CC90CD50C110C25
:1029F600F10C930E920EF20C2B0D640DEC0BC60D22
:102A0600330E00000000E3104F1310051305B71135
:102A1600F10CC20CE10CC90CD50C110CF10C930E87
:102A2600920EF20C2B0D640DA90DC60D330E00008F
:102A3600000052124F13E6119812B811D211C411A8
:00000001FF
