S01500004C6564436F6E74726F6C6C65722E73726563D6
S113000055C0000070C000006EC000006CC000004D
S11300106AC0000068C0000066C0000064C0000040
S113002062C0000060C000005EC000005CC0000050
S11300305AC0000058C0000056C0000054C0000060
S113004053C0000050C000004EC000004CC000006F
S11300504AC0000048C0000046C0000044C0000080
S113006042C0000040C000003EC000003CC0000090
S11300703AC0000038C0000036C0000034C00000A0
S113008032C0000030C000002EC0000025012A014B
S11300902F01340139013E01430148014D01520150
S11300A057015C01610166016D01720111241FBEDB
S11300B0CFEFD0E1DEBFCDBF11E0A0E0B1E0E4E5D9
S11300C0F4E000E00BBF02C007900D92A230B1072C
S11300D0D9F721E0A2E0B1E001C01D92A731B20737
S11300E0E1F796D1B5C18CCF1F920F920FB60F9244
S11300F011242F938F939F9380910801909109016C
S11301000196843F21E0920729F09093090180939E
S1130110080104C0109209011092080180910D0198
S11301208823D1F080910601909107010196909364
S1130130070180930601893E934070F010920D01EF
S1130140109207011092060190910C0181E0892719
S113015080930C0110920E0183B38F70809313016E
S113016080910F019091100101968333910528F439
S11301709093100180930F0152C0109210011092BD
S11301800F01809100019091010101979093010169
S11301908093000180911401909115010196909330
S11301A0150180931401809111019091120101961F
S11301B090931201809311018091000190910101AB
S11301C0892B31F080911401909115010F9739F525
S11301D010921501109214018FE090E090930101A8
S11301E08093000180910E018F5F823019F080931B
S11301F00E0115C010920E0180910A0190910B011D
S1130200019690930B0180930A01809116018F5FF0
S1130210833019F08093160102C01092160182B740
S1130220866082BF9F918F912F910F900FBE0F9088
S11302301F901895E0910401F0910501E031F1055A
S113024008F054C0EA5BFF4FFAC0909891989298D6
S113025093984CC0909A91989298939847C090988C
S1130260919A9298939842C0909A919A929893985E
S11302703DC090989198929A939838C0909A91988A
S1130280929A939833C09098919A929A93982EC088
S1130290909A919A929A939829C09098919892984A
S11302A0939A24C0909A91989298939A1FC0909888
S11302B0919A9298939A1AC0909A919A9298939A32
S11302C015C090989198929A939A10C082B38E6FA9
S11302D082BB9198929A939A09C09098919A929A13
S11302E0939A04C0909A919A929A939A8091040155
S11302F09091050101968031910529F090930501B3
S11303008093040108951092050110920401089548
S113031020E030E0E0E8F0E0682F70E0AF01022E6A
S113032002C0559547950A94E2F746235723452B77
S113033089F090911601913039F018F0923039F02B
S11303400BC09598949A08C0959A949805C095986E
S1130350949802C095989498969A000096982F5F66
S11303603F4F28303105D1F60895979A00009798A9
S1130370C09886EA8A95F1F700C00895CF92DF927B
S1130380FF920F931F93CF93DF93CDB7DEB7C05483
S1130390D1090FB6F894DEBF0FBECDBFFE01319672
S11303A080E4DF011D928A95E9F78F0180E090E0F7
S11303B0382F2227282B392B219331930196803211
S11303C09105B1F780E290E09093030180930201DC
S11303D06E01B1E4CB0ED11CF8018081F1800E5F77
S11303E01F4F96DF8F2D94DF25DFBFDF0C151D0512
S11303F099F7C05CDF4F0FB6F894DEBF0FBECDBFD8
S1130400DF91CF911F910F91FF90DF90CF900895CE
S11304108FEF81BB81E087BB789410920D018091AE
S11304200A0190910B01AADF80910A0190910B01BE
S11304308897A9F710920B0110920A01F0CFEE0FE2
S1130440FF1F0024001C0BBE0790F691E02D0994B9
S1070450F894FFCF4A
S10504540F0093
S9030000FC
