:1000000031C04BC04AC049C048C047C046C045C0C7
:1000100044C043C042C041C040C03FC03EC03DC0DC
:100020003CC03BC083C03AC038C037C036C035C0C2
:1000300034C033C0F7C2FCC201C306C30CC311C332
:1000400016C31BC38EC28DC28CC28BC28AC289C228
:1000500088C287C2EBC2F0C2F5C2FBC200C305C3AF
:100060000AC30FC311241FBECFEFD2E0DEBFCDBF46
:1000700011E0A0E0B1E0E8EDF6E002C005900D92DD
:10008000A430B107D9F721E0A4E0B1E001C01D928E
:10009000AE3CB207E1F797D11DC3B2CF1F920F92CA
:1000A0000FB60F9211242F933F934F935F938F932B
:1000B0009F93AF93BF93EF93FF93E9ECF1E09181AE
:1000C00080819817F9F091818081981301C0FFCF4A
:1000D000E9ECF1E08181A381B481A80FB11D9C916D
:1000E0008181482F50E0228130E0215031094217B0
:1000F000530711F08F5F01C080E08093CA01909395
:10010000C60005C0E1ECF0E080818F7D8083FF9127
:10011000EF91BF91AF919F918F915F914F913F91DF
:100120002F910F900FBE0F901F9018951F920F9256
:100130000FB60F9211242F933F934F935F936F93BA
:100140007F938F939F93AF93BF93EF93FF93909180
:10015000C600E4ECF1E041818081682F70E02281EB
:1001600030E0215031096217730711F08F5F01C031
:1001700080E0481301C0FFCFE4ECF1E08081A3816F
:10018000B481A80FB11D9C938081482F50E022813B
:1001900030E0215031094217530711F08F5F01C041
:1001A00080E08093C401FF91EF91BF91AF919F9147
:1001B0008F917F916F915F914F913F912F910F9010
:1001C0000FBE0F901F90189587E084B98FE787B90D
:1001D00080EE8AB915B818B81BB888B131E083270A
:1001E00088B987EA91E60197F1F700C0000088B16D
:1001F00022E0822788B9E7EAF1E63197F1F700C0FB
:10020000000088B194E0892788B9E7EAF1E63197E0
:10021000F1F700C0000088B168E0862788B9E7EAF6
:10022000F1E63197F1F700C0000088B150E1852771
:1002300088B9E7EAF1E63197F1F700C0000048B16C
:1002400080E2482748B9E7EAF1E63197F1F700C0C4
:10025000000045B1432745B9E7EAF1E63197F1F7E8
:1002600000C0000045B1422745B9E7EAF1E6319701
:10027000F1F700C0000045B1492745B9E7EAF1E6CA
:100280003197F1F700C000004BB140584BB9E7EA95
:10029000F1E63197F1F700C000007BB140E474272C
:1002A0007BB9E7EAF1E63197F1F700C000007BB1D6
:1002B00078277BB9E7EAF1E63197F1F700C0000053
:1002C000E7EAF1E63197F1F700C0000078B1732753
:1002D00078B9E7EAF1E63197F1F700C0000078B1AC
:1002E000722778B9E7EAF1E63197F1F700C000002C
:1002F00078B1792778B9E7EAF1E63197F1F700C0EC
:10030000000078B1672768B9E7EAF1E63197F1F7BD
:1003100000C0000068B1562758B9E7EAF1E6319706
:10032000F1F700C0000058B1582758B9E7EAF1E6E4
:100330003197F1F700C0000055B1352735B9E7EA2C
:10034000F1E63197F1F700C0000035B1232725B958
:10035000E7EAF1E63197F1F700C0000025B19227F6
:1003600095B9E7EAF1E63197F1F700C000009BB1DB
:1003700090589BB9E7EAF1E63197F1F700C0000029
:100380009BB149274BB9E7EAF1E63197F1F700C095
:1003900000009BB189278BB987EA91E60197F1F7B5
:1003A00000C0000015B818B81BB80895662341F0C6
:1003B000E82FF92F80E09191890F6150E1F701C09A
:1003C00080E080950895CF93DF93CDB7DEB769972E
:1003D0000FB6F894DEBF0FBECDBFF6DEF8941092D4
:1003E000C5008CE08093C400E0ECF0E08081826086
:1003F0008083E1ECF0E088E9808386E08093C200AE
:100400008081806280831D8A1E8A80E48F8B24E431
:1004100031E0398F288F95E0FE017596DE01509608
:1004200001900D929A95E1F795E0FE017096DE013C
:100430001B9601900D929A95E1F795E0FE013B968F
:10044000A9ECB1E001900D929A95E1F71D8A1E8A00
:100450008F8B84E891E0998F888F85E0FE017596F7
:10046000DE01169601900D928A95E1F785E0FE0176
:100470003696DE01119601900D928A95E1F785E09E
:10048000FE013196A4ECB1E001900D928A95E1F75E
:10049000789490E060E071E0E9ECF1E041EC50E04C
:1004A00010E035C0A92FB0E0A050BF4F0C91F894D8
:1004B00021818081281304C0DA018C9180628C93A1
:1004C000F1808081A82FB0E0228130E021503109F5
:1004D000A217B30711F08F5F01C0812FF81201C07E
:1004E000FFCF8081A381B481A80FB11D0C938081BF
:1004F000A82FB0E0228130E021503109A217B307C4
:1005000011F08F5F01C0812F808378949F5FDB01A2
:100510000D900020E9F71197A050B140292F30E04D
:100520002A173B0708F4BECF04EC11E00F2EF1E1CF
:100530004F2EF1E05F2EF02D712C0F2EF4E0EF2EF8
:10054000F1E0FF2EF02D6894CC24C1F8DD24D39483
:100550006894882485F86894992494F86894AA2467
:10056000A2F8F80143815481228130E02150310901
:10057000E4E0F1E0D80111969C9111978C919817C5
:10058000C9F311969C9111978C91981301C0FFCFDC
:10059000D80111968C91DA01A80FB11D9C91D80158
:1005A00011968C91682F70E06217730711F08F5FBE
:1005B00001C0872DD80111968C939193E415F50510
:1005C000C9F6F7018081833461F68181833449F66D
:1005D00082818D3431F68381833519F6B08468E0E9
:1005E000C701E4DEB812BDCFD70117968C911797DB
:1005F00014969C91923009F446C018F4913041F061
:10060000B0CF933009F459C0943009F45FC0A9CF3A
:1006100090E0FC013197E831F10508F0A2CFE65EE9
:10062000FF4F099488B18D2588B99BCF409A99CF07
:1006300088B18C2588B995CF419A93CF88B18A2506
:1006400088B98FCF429A8DCF98B188E0892788B931
:1006500088CF439A86CF88B1892588B982CF449ABA
:1006600080CF88B1882588B97CCF459A7ACF85B16B
:100670008D2585B976CF289A74CF85B18C2585B91B
:1006800070CF299A6ECF833281F028F4813249F0FD
:10069000823249F066CF853261F048F0863259F0F7
:1006A00060CF5D9A5ECF5E9A5CCF5F9A5ACF5D98BD
:1006B00058CF5E9856CF5F9854CF813319F082336C
:1006C00019F04FCF2A9A4DCF2A984BCF15B818B8AA
:0806D0001BB847CFF894FFCFDF
:0406D80043434D004B
:00000001FF
