S012000054494D45525F544553542E73726563F2
S113000019C028C027C026C025C024C023C022C0D0
S113001021C020C01FC01EC01DC01CC01BC01AC0F0
S11300205CC018C017C016C015C014C013C012C0DD
S113003011C010C011241FBECFEFD2E0DEBFCDBF70
S113004021E0A0E0B1E001C01D92A930B207E1F7C0
S113005015D054C0D5CF14BC81E085BD80936E000B
S113006085BB82EA86BD089514B88CE087B980E325
S11300708AB915B818B81BB818B80895F5DFEBDFBE
S1130080789454E0809100018130E1F788B18527AC
S113009088B9809101012091020130910201E0911F
S11300A00201F0E0F595E795F595E795F595E79567
S11300B0ED5FFE4F408190E0387F231B02C0880F24
S11300C0991F2A95E2F7842B8083809102018F5F28
S11300D08093020110920001D5CF1F920F920FB6A8
S11300E00F9211248F9381E08093000182EA86BDF0
S11300F08F910F900FBE0F901F901895F894FFCF1B
S9030000FC
