:1000000045C0000061C000005FC000005DC000008E
:100010005BC0000059C0000057C000000C94120ED5
:1000200053C0000051C000000C94EB0A4DC000000A
:100030004BC0000049C0000047C0000045C00000A0
:100040000C941D0A41C000000C94DE090C94A90A0E
:100050000C94D90A39C0000037C0000035C0000038
:1000600033C0000031C000002FC000002DC00000D0
:100070002BC0000029C0000027C0000025C00000E0
:1000800023C0000021C000001FC0000011241FBEBB
:10009000CFEFD0E1DEBFCDBF13E0A0E0B1E0ECEEEA
:1000A000FCE100E00BBF02C007900D92A031B10748
:1000B000D9F720E1A0E1B3E001C01D92A836B20754
:1000C000E1F7B9D70C94740E9BCFCF93DF9320E068
:1000D00030E026173707A9F0A52FBB27FC01E20F58
:1000E000F31FE081EA01CE27FE01FF27EE0FFF1F7D
:1000F000E05FFE4F408151814A275B272F5F3F4FD2
:10010000E8CFCA01DF91CF91089590E797BB88E1CE
:1001100081BB86E982B910926100E4E6F0E080815B
:100120008360808312BA98BB84E083B91092620026
:100130000895E0B1E295EF70F0E0E050FF4F80816C
:10014000089580B182FB882780F991E0892708957E
:1001500080B18695817091E08927089581E00D9B9B
:1001600080E00895109290008CE089B986E0809339
:10017000950088E98AB9089513BE87B7816087BF63
:1001800012BE0895FC01EE51FE4F20813181203EC8
:10019000314068F420813181DC01A20FB31F6C93E0
:1001A0008081918101969183808381E0089580E030
:1001B0000895CF93DF93FC01EE51FE4F40815181B2
:1001C000EC01C052DE4F288139814217530768F491
:1001D00020813181DC01A20FB31F8C91DB018C9354
:1001E0008081918101969183808340815181288112
:1001F000398181E04217530709F080E0DF91CF9108
:1002000008951092060E1092070E1092080E10928A
:10021000090E10920A0E10920B0EEEE0FEE0119203
:100220008FE0EE3EF807D9F71092EF0F1092EE0F25
:100230000895E7DF3091CD0B8091CE0B2091CF0B4D
:1002400090E0A0E0B0E0932BDC0199278827822B77
:100250008093060E9093070EA093080EB093090E9C
:100260008091D00B80930A0E8091D10B80930B0E5E
:100270002091D20B8091D30B90E0922B813E21E014
:10028000920710F080EE91E090930D0E80930C0E8B
:1002900020910C0E30910D0EEEE0FEE060E070E07B
:1002A000CB0107966217730741F0DC01A353B44FEB
:1002B0008C9181936F5F7F4FF3CFFC01E353F44F39
:1002C0002081FB01EB52F44F808190E0922B9093C0
:1002D000EF0F8093EE0F6C5F7F4F4FEF5FEF80ED7E
:1002E0009BE0F3DE4091060E5091070E6091080EE0
:1002F0007091090E452B462B472B79F42091EE0F78
:100300003091EF0F8217930751F4809197089091E5
:100310000A0E981306C083E0089580E0089581E0F6
:10032000089582E00895CF93DF93EB011092BC090A
:100330001092BD091092BE09909197089093BF0941
:100340008093C009D093C1096093C209603E714097
:1003500018F4209789F002C0C0EED1E080E090E070
:10036000FA01E80FF91F2081FC01ED53F64F2083BD
:1003700001968C179D07A0F3CE010B9690939D0BD1
:1003800080939C0BBE016C5F7F4F4FEF5FEF8FEB55
:1003900099E09BDEFE01ED53F64F9083FE01EC5396
:1003A000F64F8083FE01EB53F64F1082CA53D64FAF
:1003B000188257981A98559ADF91CF91089515BCD5
:1003C00087B7806487BF14BC089580E090E0FC018B
:1003D000EC5BF64F1082FC01E051F04F1082FC0103
:1003E000E356F74F108201968837910581F7809187
:1003F000960880934409089580E090E0FC01E45E53
:10040000F64F1082FC01E056F44F108201968832BC
:100410009105A1F78091950880931C09089580E0CB
:1004200090E0FC01EE54F24F108201968832910563
:10043000C1F7089580E090E0FC01E552F24F108290
:10044000019688329105C1F708952F923F924F92FD
:100450005F926F927F928F929F92AF92BF92CF9254
:10046000DF92EF92FF920F931F93CF93DF93CDB75D
:10047000DEB7E0970FB6F894DEBF0FBECDBF48AB36
:1004800049835A836B837C838D8394E893B9E9E233
:10049000F2E03197F1F700C0000040FB882480F8BB
:1004A000912C9694982C882497948794982D9460F6
:1004B00093B9E9E2F2E03197F1F700C0000041FBA7
:1004C000AA24A0F8B12CB694BA2CAA24B794A79465
:1004D0009A2D946093B9E9E2F2E03197F1F700C008
:1004E000000042FBCC24C0F8D12CD694DC2CCC24C8
:1004F000D794C7949C2D946093B9E9E2F2E03197C8
:10050000F1F700C0000050FBEE24E0F8F12CF69467
:10051000FE2CEE24F794E7949E2D946093B9E9E2C3
:10052000F2E03197F1F700C0000051FB002700F91D
:1005300010E01695102F002717950795046003B952
:10054000E9E2F2E03197F1F700C0000052FBAA2780
:10055000A0F9B0E0B695BA2FAA27B795A795A460E1
:10056000A3B9E9E2F2E03197F1F700C0000053FBD4
:10057000EE27E0F9F0E0F695FE2FEE27F795E795E8
:10058000E460E3B9E9E2F2E03197F1F700C000007E
:1005900054FB222720F930E03695322F2227379559
:1005A0002795246023B9E9E2F2E03197F1F700C022
:1005B000000055FB662460F8712C93013695322FAC
:1005C000222737952795922F946093B9E9E2F2E0BC
:1005D0003197F1F700C0000056FBFF27F0F9FE83CA
:1005E0001F822E813F813695322F222737952795FE
:1005F000246023B9E9E2F2E03197F1F700C000008E
:10060000551F5527551F252F30E03695322F2227AD
:1006100037952795246023B9E9E2F2E03197F1F7A5
:1006200000C00000F62FF170F887198628853985FB
:100630003695322F222737952795246023B9E9E292
:10064000F2E03197F1F700C0000061FBFF27F0F9FD
:10065000FA871B862A853B853695322F22273795C8
:100660002795246023B9E9E2F2E03197F1F700C061
:10067000000062FBFF27F0F9FC871D862C853D8575
:100680003695322F222737952795246023B9E9E242
:10069000F2E03197F1F700C0000063FBFF27F0F9AB
:1006A000FE871F862E853F853695322F2227379568
:1006B0002795246023B9E9E2F2E03197F1F700C011
:1006C000000064FBFF27F0F9F88B198A2889398923
:1006D0003695322F222737952795246023B9E9E2F2
:1006E000F2E03197F1F700C0000065FBFF27F0F959
:1006F000FA8B1B8A2A893B893695322F2227379518
:100700002795246023B9E9E2F2E03197F1F700C0C0
:10071000000066FBFF27F0F9FC8B1D8A2C893D89C0
:100720003695322F222737952795246023B9E9E2A1
:10073000F2E03197F1F700C00000661F6627661FE0
:10074000262F30E03695322F2227379527952460C3
:1007500023B9E9E2F2E03197F1F700C00000F72F8A
:10076000F170FE8B1F8A2E893F893695322F222702
:1007700037952795246023B9E9E2F2E03197F1F744
:1007800000C0000071FBFF27F0F9F88F198E288D4B
:10079000398D3695322F222737952795246023B936
:1007A000E9E2F2E03197F1F700C0000072FBFF27A9
:1007B000F0F9FA8F1B8E2A8D3B8D3695322F22272A
:1007C00037952795246023B9E9E2F2E03197F1F7F4
:1007D00000C0000073FBFF27F0F9FC8F1D8E2C8DED
:1007E0003D8D3695322F222737952795246023B9E2
:1007F000E9E2F2E03197F1F700C0000074FBFF2757
:10080000F0F9FE8F1F8E2E8D3F8D3695322F2227C9
:1008100037952795246023B9E9E2F2E03197F1F7A3
:1008200000C0000075FBFF27F0F9F8A319A228A16A
:1008300039A13695322F222737952795246023B981
:10084000E9E2F2E03197F1F700C0000076FBFF2704
:10085000F0F9FAA31BA22AA13BA13695322F222739
:1008600037952795246023B9E9E2F2E03197F1F753
:1008700000C00000771F7727771F272F30E03695BD
:10088000322F222737952795246023B9E9E2F2E039
:100890003197F1F700C00000F82FF170FCA31DA202
:1008A0002CA13DA13695322F22273795279524601C
:1008B00023B9E9E2F2E03197F1F700C0000081FBD3
:1008C000FF27F0F9FEA31FA22EA13FA13695322FDC
:1008D000222737952795246023B9E9E2F2E0319782
:1008E000F1F700C0000082FBFF27F0F9F8A719A676
:1008F00028A539A53695322F2227379527952460CC
:1009000023B9E9E2F2E03197F1F700C0000083FB80
:10091000FF27F0F9FAA71BA62AA53BA53695322F8B
:10092000222737952795246023B9E9E2F2E0319731
:10093000F1F700C0000084FBFF27F0F9FCA71DA61B
:100940002CA53DA53695322F222737952795246073
:1009500023B9E9E2F2E03197F1F700C0000085FB2E
:10096000FF27F0F9FEA71FA62EA53FA53695322F2B
:10097000222737952795246023B9E9E2F2E03197E1
:10098000F1F700C0000086FB222420F8312C9101F1
:100990003695322F222737952795246023B9E9E22F
:1009A000F2E03197F1F700C00000881F8827881F08
:1009B00090E09695982F882797958795846083B9BE
:1009C00089E292E00197F1F700C0000084E083B96A
:1009D000E0960FB6F894DEBF0FBECDBFDF91CF918A
:1009E0001F910F91FF90EF90DF90CF90BF90AF904D
:1009F0009F908F907F906F905F904F903F902F903F
:100A000008952F923F924F925F926F927F928F92B2
:100A10009F92AF92BF92CF92DF92EF92FF920F938D
:100A20001F93CF93DF93CDB7DEB763970FB6F894DC
:100A3000DEBF0FBECDBF24E823B9E9E2F2E0319773
:100A4000F1F700C0000060FBAA24A0F8B12CB69416
:100A5000BA2CAA24B794A794FA2DF460F3B9E9E26A
:100A6000F2E03197F1F700C0000061FBCC24C0F840
:100A7000D12CD694DC2CCC24D794C794FC2DF460D4
:100A8000F3B9E9E2F2E03197F1F700C0000062FB50
:100A9000EE24E0F8F12CF694FE2CEE24F794E79483
:100AA0006E2D646063B9E9E2F2E03197F1F700C0BE
:100AB0000000072F017010E01695102F00271795E2
:100AC0000795046003B9E9E2F2E03197F1F700C05D
:100AD000000071FBFF27F0F9FA8B1B8A2A893B89FA
:100AE0003695322F2227379527953B8B2A8B24600A
:100AF00023B9E9E2F2E03197F1F700C0000072FBA0
:100B0000AA27A0F9B0E0B695BA2FAA27B795A7955E
:100B1000A460A3B9E9E2F2E03197F1F700C0000068
:100B200073FBEE27E0F9F0E0F695FE2FEE27F79540
:100B3000E795E460E3B9E9E2F2E03197F1F700C04C
:100B4000000074FB442740F950E05695542F442789
:100B500057954795446043B9E9E2F2E03197F1F7E0
:100B600000C0000075FB222720F930E03695322FB7
:100B7000222737952795246023B9E9E2F2E03197DF
:100B8000F1F700C0000076FB882480F8912C9401D6
:100B90003695322F222737952795246023B9E9E22D
:100BA000F2E03197F1F700C00000771F7727771F39
:100BB000272F30E03695322F22273795279524604E
:100BC00023B9E9E2F2E03197F1F700C0000080FBC1
:100BD000662460F8712C93013695322F22273795C1
:100BE0002795246023B9E9E2F2E03197F1F700C0DC
:100BF000000081FB442440F8512C92013695322F9D
:100C0000222737952795246023B9E9E2F2E031974E
:100C1000F1F700C0000082FBFF27F0F9F9831A8288
:100C200029813A813695322F2227379527952460DE
:100C300023B9E9E2F2E03197F1F700C0000083FB4D
:100C4000882780F98B831C822B813C813695322F3B
:100C5000222737952795246023B9E9E2F2E03197FE
:100C6000F1F700C00000F92FF170FD831E822D8185
:100C70003E813695322F222737952795246023B958
:100C8000E9E2F2E03197F1F700C0000091FBFF27A5
:100C9000F0F9FF8318862F8138853695322F222769
:100CA00037952795246023B9E9E2F2E03197F1F70F
:100CB00000C0000092FBFF27F0F9F9871A8629850A
:100CC0003A853695322F222737952795246023B908
:100CD000E9E2F2E03197F1F700C0000093FBFF2753
:100CE000F0F9FB871C862B853C853695322F222711
:100CF00037952795246023B9E9E2F2E03197F1F7BF
:100D000000C0000094FBFF27F0F9FD871E862D85AB
:100D10003E853695322F222737952795246023B9B3
:100D2000E9E2F2E03197F1F700C0000095FBFF2700
:100D3000F0F9FF87188A2F8538893695322F2227B8
:100D400037952795246023B9E9E2F2E03197F1F76E
:100D500000C0000096FB222420F8312C910136952A
:100D6000322F222737952795246023B9E9E2F2E054
:100D70003197F1F700C00000991F9927991F892F1B
:100D800090E09695982F882797958795846083B9EA
:100D900089E292E00197F1F700C0000084E083B996
:100DA00063960FB6F894DEBF0FBECDBFDF91CF9133
:100DB0001F910F91FF90EF90DF90CF90BF90AF9079
:100DC0009F908F907F906F905F904F903F902F906B
:100DD000089585B7806885BF88E680936D0082E8B6
:100DE00080936C0008950F931F93CF93DF93DC01E2
:100DF000E0E0F0E0862F90E0E817F90768F511963B
:100E00004C91119750E060E070E0BA0155274427FB
:100E100013962C911397422B12960C91129710E077
:100E2000102F0027012E000C220B330B402B512BCF
:100E3000622B732BEF01CC0FDD1FCC0FDD1FC755CD
:100E4000D94F488359836A837B83EF01C75EDA4FAA
:100E5000188231961496D0CF80918B08846080934D
:100E60008B08DF91CF911F910F910895CF92DF9260
:100E7000EF92FF92CF93DF93DC011196E0E0F0E078
:100E8000862F90E0E817F90750F53C9111962C91C8
:100E9000119712964C91129750E060E070E06A0151
:100EA0007B01E32A30E0522F4427052E000C660B0D
:100EB000770B4C295D296E297F29EF01CC0FDD1FAF
:100EC000CC0FDD1FC75FD94F488359836A837B836B
:100ED000EF01CF50DB4F188231961496D3CF80911B
:100EE0008B08886080938B08DF91CF91FF90EF9003
:100EF000DF90CF900895E5E0F1E120E030E090E070
:100F00002817390738F441E0420F40832F5F3F4FE5
:100F10003A96F6CF0895019620E030E070E026176B
:100F2000370750F4FC014081F901E75EFA4F408336
:100F30002F5F3F4F0296F3CF80918B0880628093A2
:100F40008B080895019620E030E070E026173707FF
:100F500050F4FC014081F901EF50FB4F40832F5FBB
:100F60003F4F0296F3CF80918B08806480938B086B
:100F70000895CF92DF92FF920F931F93CF93DF9349
:100F8000A0E0B0E0C12CD12C40E050E070E046176A
:100F90005707E0F4ED0121E030E08601020F131F56
:100FA000080F191FF801F0808E010F5E1C4FF80129
:100FB000F0822F5F3F4F21962530310571F7F5E024
:100FC000CF0ED11C4F5F5F4F1496E1CF80918B08FD
:100FD000806180938B08DF91CF911F910F91FF90DB
:100FE000DF90CF9008951F93CF93DF93EC01162FDE
:100FF00021DAFE01319680E090E0612F70E08617E3
:10100000970780F420812058DC01AF56BA4F2C930B
:10101000A081B0E0A55AB24F2C912F5F2C9301967E
:101020003296EDCF80918B08806880938B08DF919A
:10103000CF911F910895FF920F931F93CF93DF934A
:1010400064D8C7DE76D8809397087BD880939C08B5
:101050007FD880931B0910928B0880919C08811186
:1010600015C080D889D81092B00D1092AF0D109293
:10107000AE0D1092AD0D10929F0B10929E0B109220
:101080009D0B10929C0BA1D99AD910C084E6809335
:101090009608C3E0C0938B0881E080938E0885E0BA
:1010A0008093980884E627DF8AD9C5BD7894FF2409
:1010B000F39454D881110AC087EC90E00197F1F7BE
:1010C00000C000004BD8882309F46DC1C09192087C
:1010D000D09193081D2FDD2309F4F0C0CD2FD0FF50
:1010E0002BC080918B088E7F80938B086ED9609186
:1010F0000C0E70910D0E76956795769567956093B9
:101100009608609344098EE09EE06DDE809196081B
:1011100040E050E060E070E0811102C082E401C074
:1011200081E301D91092900810928E08109210035A
:101130001092930810929208C1FF27C080918B08EB
:101140008D7F80938B0858D960910C0E70910D0E95
:1011500076956795769567956093950860931C09D9
:101160008EE09EE083DE8091960840E050E060E0F3
:1011700070E0811102C082E401C081E3D4D81092F2
:101180008F081092930810929208C2FF15C06091C8
:1011900096088EE09EE027DF8091960840E050E0C0
:1011A00060E070E0811102C082E401C081E3BBD83D
:1011B0001092930810929208C3FF18C0F0928D0805
:1011C000609196088EE09EE0A6DEFFD8809196089A
:1011D00040E050E060E070E0811102C082E401C0B4
:1011E00081E3A1D81092930810929208C4FF18C00E
:1011F000F0928C08609196088EE09EE0A3DEFCD809
:101200008091960840E050E060E070E0811102C0FB
:1012100082E401C081E387D810929308109292086B
:10122000C5FF1DC019BE10928E08609196088EE011
:101230009EE09FDE10928A0810929008C6D8809196
:10124000960840E050E060E070E0811102C082E466
:1012500001C081E368D81092930810929208C6FFEB
:1012600013C010928D08B1D88091960840E050E0EC
:1012700060E070E0811102C082E401C081E353D8D4
:10128000109293081092920817FF13CF10928C08B7
:10129000B3D880919608811106C040E050E060E02C
:1012A00070E082E405C040E050E060E070E081E37F
:1012B0003AD81092930810929208FBCECC2309F4EE
:1012C000F8CE8E011127C0FF19C0609196086111F8
:1012D00006C040E050E060E070E082E40AC070E0E8
:1012E0006F5F7F4F759567956F5F7F4F44E459E05F
:1012F00081E119D8109293081092920801FF1CC046
:1013000080919608811106C040E050E060E070E0F6
:1013100082E40CC06091950870E06F5F7F4F759517
:1013200067956F5F7F4F4CE159E082E10E94930126
:10133000109293081092920802FF13C0F0928E0848
:101340008091960840E050E060E070E0811102C0BA
:1013500082E401C081E30E949301109293081092ED
:10136000920803FF13C010928E088091960840E007
:1013700050E060E070E0811102C082E401C081E3CE
:101380000E9493011092930810929208C7FF91CE89
:1013900080919608882309F480CF40E050E060E017
:1013A00070E081E485CF80E183B9C49880E090E06B
:1013B000DF91CF911F910F91FF9008951F920F928F
:1013C0000FB60F9211240BB60F922F933F934F93AA
:1013D0005F936F937F938F939F93AF93BF93EF939D
:1013E000FF938CB18093CA0B6091CA0B8DEC9BE08C
:1013F0000E94C200811108C01092B00D1092AF0D72
:101400001092AE0D1092AD0D12BE84E083BFC49A4F
:10141000C59AC69AFF91EF91BF91AF919F918F911D
:101420007F916F915F914F913F912F910F900BBEE4
:101430000F900FBE0F901F9018951F920F920FB62E
:101440000F9211240BB60F922F933F934F935F93FC
:101450006F937F938F939F93AF93BF93EF93FF937C
:1014600012BE809194088F5F8093940880919408B5
:10147000813009F05BC013BE1092B00D1092AF0D19
:101480001092AE0D1092AD0D10929F0B10929E0B0C
:1014900010929D0B10929C0B109294080E941901BF
:1014A000813021F018F0833019F040C0C6983EC05A
:1014B00020910B0E8091920890919308243229F18B
:1014C00078F42132F1F030F4213029F1223049F55D
:1014D000826028C02232B9F0233219F5986022C008
:1014E0002732B9F030F4253291F02632D1F49460ED
:1014F00019C02136A1F0223681F0283291F490688B
:1015000011C091600FC092600DC090610BC09062DD
:1015100009C0906407C0816005C0846003C0886012
:1015200001C080689093930880939208FF91EF9197
:10153000BF91AF919F918F917F916F915F914F91EB
:101540003F912F910F900BBE0F900FBE0F901F90E9
:1015500018951F920F920FB60F9211240BB60F928F
:101560002F933F934F935F936F937F938F939F93AB
:10157000AF93BF93EF93FF936CE270E08CEB99E035
:101580000E94D900813011F45598569AFF91EF913D
:10159000BF91AF919F918F917F916F915F914F918B
:1015A0003F912F910F900BBE0F900FBE0F901F9089
:1015B00018951F920F920FB60F9211248F93569881
:1015C000579A1A9A83E085BD14BC8F910F900FBE75
:1015D0000F901F9018951F920F920FB60F92112423
:1015E0000BB60F922F933F934F935F936F937F931D
:1015F0008F939F93AF93BF93CF93DF93EF93FF931B
:1016000014BC809191088F5F80939108809191081C
:101610008F3108F4F2C21092910890919008809155
:101620009608981710F01092900890918F0880916A
:101630009508981710F010928F0890918B08917070
:101640009093B10D90918B08927090931A0990919C
:101650008B0890719093CB0B9091B10D913029F440
:1016600090911A09923009F4F5C080918B0884702A
:101670008093C80B80918B0888708093DA0D8091DD
:10168000C80B843009F089C080911003811121C0FA
:1016900087E080931509109216091092170910928D
:1016A0001809109219094091150950911609609175
:1016B000170970911809809119090E94250281E08B
:1016C000809310038FE19EE40197F1F700C00000C2
:1016D00094C210921509E091900894E0E99FF001FE
:1016E0001124E755F94F80819181A281B381CD0109
:1016F000AA27BB2780931609E091900884E0E89F11
:10170000F0011124E755F94F80819181A281B381C5
:10171000892F9A2FAB2FBB2780931709E091900850
:1017200094E0E99FF0011124E755F94F8081918100
:10173000A281B38180931809809190088F5F809374
:101740001909C5982091900830E08091960890E0A2
:1017500001972817390779F480918B08816080936D
:101760008B0880918B088B7F80938B081092900858
:10177000C59AC49A05C0809190088F5F80939008A5
:101780004091150950911609609117097091180937
:10179000809119090E94250230C28091DA0D8830AB
:1017A00009F02BC282E080931509E0918F0884E054
:1017B000E89FF0011124E75FF94F80819181A281B8
:1017C000B381CD01AA27BB2780931609E0918F082A
:1017D00094E0E99FF0011124E75FF94F8081918146
:1017E000A281B381892F9A2FAB2FBB278093170932
:1017F000E0918F0884E0E89FF0011124E75FF94F42
:1018000080819181A281B3818093180980918F0892
:101810008F5F80931909C59820918F0830E08091DF
:10182000950890E001972817390771F480918B088B
:10183000826080938B0880918B08877F80938B08D0
:1018400010928F08C59A9CCF80918F088F5F8093EC
:101850008F0896CF9091B10D913009F084C02091FE
:101860001A09223009F07FC02091CB0B203109F0FA
:101870007AC0C59890939808809190088F5F809364
:10188000990880918A0881110CC08CE080939A0895
:10189000E091900894E0E99FF0011124EF5EFC4F85
:1018A0002FC080918A08813061F48DE080939A087E
:1018B000E091900884E0E89FF0011124EE5EFC4F77
:1018C0001FC080918A08823061F48EE080939A086C
:1018D000E091900894E0E99FF0011124ED5EFC4F47
:1018E0000FC080918A08833071F48FE080939A084A
:1018F000E091900884E0E89FF0011124EC5EFC4F39
:10190000808180939B0880918A08833041F41092F3
:101910008A08809190088F5F8093900805C080911D
:101920008A088F5F80938A082091900830E0809128
:10193000960890E001972817390759F4C59AC49A78
:1019400080918B088F7E80938B081092890810926B
:101950009008609198087091990880919A089091E8
:101960009B084FD84AC190918E08913009F045C12B
:1019700090919C08911148C093E0909398089091A1
:101980008F089F5F9093990890918C08913071F423
:10199000E0918F08F0E0EF50FB4F908191110CC067
:1019A000E0918F08F0E0E056F44F05C0E09199080F
:1019B000F0E0E156F44F908120911B09213009F4A9
:1019C00096E090939A0810929B0820918F0830E03F
:1019D00090E001972817390719F410928F0805C075
:1019E00080918F088F5F80938F0860919808709125
:1019F000990880919A0890919B0803D8EFE1FEE442
:101A00003197F1F700C0000080919C08882311F005
:101A100084E001C081E080939808809190088F5FF6
:101A20008093990880919C08811106C0E0919008EC
:101A3000F0E0E75EFA4F8081809199088093C90BAE
:101A400080919C088111C59880918D08813039F46E
:101A5000E0919008F0E0E75EFA4F808101C080E0FD
:101A600090911B09913059F0833061F050F085302E
:101A700049F018F0863029F402C084E003C086E003
:101A800001C088E080939A0810929B0820919008EA
:101A900030E08091960890E001972817390709F007
:101AA0009BC0109290080E940F026091960881E0FE
:101AB00090E08617A0F5AC0141505109EA01C051F0
:101AC000D04F3881DC01A051B04F7C91F0E13F9FB5
:101AD00090011124372F3F70232BE82FE695F0E07B
:101AE000EB5BF64F2083FA01EF56FA4FE081288135
:101AF000213031F0F0E0EE54F24F20812F5F20834F
:101B0000FC01EF56FA4FE0812C91213031F0F0E0EA
:101B1000EE54F24F20812F5F20830296CACFC091EE
:101B2000950881E090E020E030E0E82F8C1708F085
:101B300058C0DC01AE54B24F5C91DC01A552B24FEB
:101B40004C91541710F055E001C054E0B9016E5F9C
:101B50007F4FDB01AE54B24FFC91DB01A552B24F77
:101B60004C91F41710F045E001C044E0DC01A356AD
:101B7000B74FFC91F11101C050E0DB01A356B74F04
:101B8000FC91F11101C040E0F0918C08F13061F45A
:101B9000D901AF50BB4FFC91F1115C91DC01AF500A
:101BA000BB4FFC91F1114C91F0E15F9FD0011124EA
:101BB000F42FFF70AF2BE695EF5FF0E0E45EF64F99
:101BC000A083F901E056F44F5083FC01E056F44F36
:101BD000408302969B01A9CF809190088F5F8093EC
:101BE0009008609198087091990880919A08909156
:101BF0009B080E94010580E489BFFF91EF91DF916E
:101C0000CF91BF91AF919F918F917F916F915F9194
:101C10004F913F912F910F900BBE0F900FBE0F90E1
:101C20001F9018951F920F920FB60F9211240BB6AA
:101C30000F922F938F939F93EF93FF93E4E0FEE037
:101C400088EF818381B18FE697E10197F1F700C0BA
:101C5000000081B1918186FB882780F9890F8183FB
:101C60008FE99FE00197F1F700C0000091B1218159
:101C700096FB882780F9880F820F81838FE99FE088
:101C80000197F1F700C0000091B1218196FB8827F0
:101C900080F9880F880F820F81838FE99FE0019779
:101CA000F1F700C000008091C90B90E021812095E0
:101CB000FC01E151F04F2083E091C90BF0E0E057C7
:101CC000FA4FE081F0E0E356F74F81E0808319BEE0
:101CD000FF91EF919F918F912F910F900BBE0F90DD
:0C1CE0000FBE0F901F901895F894FFCFD6
:101CEC000F070B030D0509010E060A020C04080070
:101CFC000000891112239B322446AD573665BF7400
:101D0C00488CC19D5AAFD3BE6CCAE5DB7EE9F7F8AF
:101D1C008110080193331A22A5562C47B7753E64DF
:101D2C00C99C408DDBBF52AEEDDA64CBFFF976E88F
:101D3C0002218B30100299132667AF763444BD55BF
:101D4C004AADC3BC588ED19F6EEBE7FA7CC8F5D96F
:101D5C0083310A2091121803A7772E66B5543C459F
:101D6C00CBBD42ACD99E508FEFFB66EAFDD874C94F
:101D7C0004428D5316619F702004A9153227BB367F
:101D8C004CCEC5DF5EEDD7FC6888E1997AABF3BA2F
:101D9C0085520C4397711E60A1142805B3373A265F
:101DAC00CDDE44CFDFFD56ECE9986089FBBB72AA0F
:101DBC0006638F7214409D512225AB343006B9173F
:101DCC004EEFC7FE5CCCD5DD6AA9E3B8788AF19BEF
:101DDC0087730E6295501C41A3352A24B11638071F
:101DEC00CFFF46EEDDDC54CDEBB962A8F99A708BCF
:101DFC00088481951AA793B62CC2A5D33EE1B7F0FF
:101E0C004008C919522BDB3A644EED5F766DFF7CAE
:101E1C00899400859BB712A6ADD224C3BFF136E0DE
:101E2C00C1184809D33B5A2AE55E6C4FF77D7E6C8E
:101E3C000AA583B4188691972EE3A7F23CC0B5D1BE
:101E4C004229CB38500AD91B666FEF7E744CFD5D6E
:101E5C008BB502A499961087AFF326E2BDD034C19E
:101E6C00C3394A28D11A580BE77F6E6EF55C7C4D4E
:101E7C000CC685D71EE597F42880A1913AA3B3B27E
:101E8C00444ACD5B5669DF78600CE91D722FFB3E2E
:101E9C008DD604C79FF516E4A9902081BBB332A25E
:101EAC00C55A4C4BD7795E68E11C680DF33F7A2E0E
:101EBC000EE787F61CC495D52AA1A3B03882B1933E
:101ECC00466BCF7A5448DD59622DEB3C700EF91FEE
:101EDC008FF706E69DD414C5ABB122A0B99230831E
:101EEC00C77B4E6AD5585C49E33D6A2CF11E780FCE
:00000001FF
