:1000000026C03EC3ACC33EC03DC03CC03BC03AC0AE
:1000100039C038C037C036C035C034C033C032C034
:100020001FC330C02FC02EC02DC02CC02BC02AC073
:1000300029C028C0B8C1BAC1BCC1BEC1F4C1BFC1CA
:10004000F2C1F1C1F0C1C5C1E0C1E4C1E8C11124F0
:100050001FBECFEFD4E0DEBFCDBF11E0A0E0B1E026
:10006000E4E8F8E002C005900D92A830B107D9F796
:1000700021E0A8E0B1E001C01D92A132B207E1F792
:10008000D8D1FEC3BDCF83E084B98CE087B980E3CB
:100090008AB915B818B81BB884E088B90895E9E69C
:1000A000F0E0108280818260808380818460808320
:1000B00080818860808383E08DBB089514BC15BC6B
:1000C00081E080936E0085BB089510920A01109222
:1000D0002001EAE1F1E0108211821282138214827F
:1000E000158208950F931F93CF9384E090E0B2D3CD
:1000F000082F85E090E0AED3C82F86E090E0AAD329
:10010000402F50E060E070E09A01112700274C2F4B
:1001100050E060E070E0762F652F542F4427400FA9
:10012000511F621F731F8A019B01080F111D211DA2
:10013000311DC901B801CF911F910F91089587E03A
:1001400090E088D380930B0189E090E083D3282F3F
:1001500030E0A4EEB2E072D3DC01CB01845A944DBE
:10016000AF4FBF4F689415F8B695A79597958795AB
:100170001694D1F78093030190930401A093050195
:10018000B09306018AE090E065D38E5C8093020113
:100190008BE090E05FD38F5F809301018CE090E073
:1001A00059D38F5F80930001089510921901109226
:1001B000180180E280937C0081E880937A000895A2
:1001C00090E0181619068CF420E030E040E24BB9BC
:1001D00053E05A95F1F700001BB800C000C00000C2
:1001E0002F5F3F4F2817390791F70895FA01808153
:1001F000813029F481818130A1F181E033C07430F4
:1002000061F018F4733031F022C0753049F0763067
:1002100059F01DC018B883E01DC084E088B91AC029
:1002200088E088B985E016C080911601811107C069
:1002300084E088B981E08093160186E00BC08130AC
:1002400041F488E088B91092160186E003C080E08E
:1002500001C086E0E7EBFBE03197F1F700C000005A
:1002600001C082E0E9EFF0E03197F1F700C0000053
:1002700090E19BB9E3EFF1E03197F1F700C00000A6
:10028000982F91709295907F9BB9E3EFF1E03197B1
:10029000F1F700C0000081FB992790F99295907FBB
:1002A0009BB9E3EFF1E03197F1F700C000008695CC
:1002B00086958295807F8BB983EF91E00197F1F766
:1002C00000C000001BB80895CF93DF938091000118
:1002D00077DF83EF91E00197F1F700C00000809194
:1002E000030190910401A0910501B0910601892BB1
:1002F0008A2B8B2B51F140E050E0BA01EAE7F0E0A5
:10030000C9E7D0E08081806480838081988180917A
:100310000201891748F48091180190911901019602
:1003200090931901809318014F5F5F4F6F4F7F4F7C
:100330008091030190910401A0910501B091060103
:10034000481759076A077B07E8F2909118018091D6
:10035000010121E0891708F020E020931701891797
:1003600018F488E088B902C084E088B910921901B5
:100370001092180180911701DF91CF910895FF929B
:100380000F931F93CF93DF93072F10E0F80133975C
:10039000ED30F10508F047C0EA01182F072FF62EBF
:1003A000E65EFF4F0994188221DF3DC018821EDFF0
:1003B0003AC018821BDF37C0188218DF34C081E0D2
:1003C000888382DF8983AE016F2D702F812F0EDF2E
:1003D0002AC0282F30E0A4EEB2E030D2DC01CB01FD
:1003E000845A944DAF4FBF4F689415F8B695A795B2
:1003F000979587951694D1F7809303019093040104
:10040000A0930501B09306010EC022E3280F2093AC
:10041000020109C021E0280F2093010104C021E05E
:10042000280F20930001DF91CF911F910F91FF9032
:100430000895CF93DF9300D0CDB7DEB724DE2FDE53
:10044000B4DE3CDE4FDE60931201709313018093A3
:1004500014019093150173DE789437DE0AE111E000
:100460006894EE24E2F8FF24F3948091080181302F
:1004700041F59091090120910A0140910A01E09112
:100480000A01E695E695E695F0E0E65EFE4F5081BE
:10049000892F90E030E046954695469568E0469F66
:1004A00020193109112402C0880F991F2A95E2F7FB
:1004B000852B808380910A018F5F80930A011092BF
:1004C000080180910A01843280F215BCF801808114
:1004D0008F7090E0969587958130910509F486C0DC
:1004E0001CF4892B81F0BAC08430910509F49CC0BA
:1004F000079709F0B3C080910D01813009F4AEC0B7
:1005000018B818B8ABC0F8013081818151812281BF
:1005100062814381F0E18F9FC001112499273295B8
:100520003F70832B092E000CAA0BBB0B5C01992496
:10053000882470E1279F900111243327852F82950D
:100540008F70F901E82BCF01092E000CAA0BBB0B11
:10055000BA2FA92F982F8827880D991DAA1DBB1D7A
:10056000F0E14F9FA0011124552762956F70462B33
:10057000052E000C660B770B840F951FA61FB71F67
:1005800080930E0190930F01A0931001B09311017D
:10059000F801B380248140911201509113016091C0
:1005A00014017091150184179507A607B70709F084
:1005B00055C0B694B694B694B694F0E12F9FC0019E
:1005C0001124B82AE8B887E090E044D180930B0169
:1005D000B81639F0B0920C016B2D87E090E042D153
:1005E00002C0B0920C01F0920D0138C080910D0153
:1005F0008130A1F5F8016081918162956F70F0E121
:100600009F9FC0011124682BF801718172957F7042
:1006100022811A8280910C01681320C0AE014F5FC5
:100620005F4F822FACDE1AC0F80180819181682F64
:1006300062956F70F0E19F9FC0011124682BF80153
:10064000718172957F7022811A8290910B016913DA
:1006500005C0AE014F5F5F4F822F91DE36DD05CFC3
:100660001F920F920FB60F9211248F9381E0809307
:10067000080116BC8F910F900FBE0F901F90189518
:100680001F920F920FB60F9211242F933F934F9307
:100690008F939F93EF93FF9315BC16BCA8988AE0A5
:1006A0008A95F1F78091200180FD2DC08091200175
:1006B00082608093200120910A0190910A01E091CB
:1006C0000A01E695E695E695F0E0E65EFE4F40818C
:1006D00030E096959695969588E0989F2019310977
:1006E000112481E090E002C0880F991F2A95E2F75B
:1006F000842B808381E08093090180910A018F5FC0
:1007000080930A011AC0809120018D7F809320017F
:1007100080910A0180910A01E0910A01E695E6952F
:10072000E695F0E0E65EFE4F80818083109209013D
:1007300080910A018F5F80930A0181E085BD16BC1C
:1007400085BB83E08CBBFF91EF919F918F914F917F
:100750003F912F910F900FBE0F901F9018951F92F1
:100760000F920FB60F9211242F933F934F938F93B5
:100770009F93EF93FF9315BC16BCA8988AE08A95C7
:10078000F1F78091200181FD2DC0809120018160D1
:100790008093200120910A0190910A01E0910A01C1
:1007A000E695E695E695F0E0E65EFE4F408130E0A6
:1007B00096959695969588E0989F20193109112471
:1007C00081E090E002C0880F991F2A95E2F7842B00
:1007D000808381E08093090180910A018F5F80937B
:1007E0000A011AC0809120018E7F809320018091A0
:1007F0000A0180910A01E0910A01E695E695E695E5
:10080000F0E0E65EFE4F80818083109209018091C6
:100810000A018F5F80930A0181E085BD16BC85BB0C
:1008200083E08CBBFF91EF919F918F914F913F910E
:100830002F910F900FBE0F901F901895A29FB0019F
:10084000B39FC001A39F01D0B29F700D811D1124E1
:10085000911D0895F999FECF92BD81BDF89A99270F
:1008600080B50895262FF999FECF1FBA92BD81BD9C
:1008700020BD0FB6F894FA9AF99A0FBE0196089522
:04088000F894FFCF1A
:080884000A03432201000000F9
:00000001FF
