S012000054494D45525F544553542E73726563F2
S113000019C028C027C026C025C024C023C022C0D0
S113001021C020C01FC01EC01DC01CC01BC01AC0F0
S113002031C018C017C016C015C014C013C012C008
S113003011C010C011241FBECFEFD2E0DEBFCDBF70
S113004021E0A0E0B1E001C01D92A830B207E1F7C1
S113005015D069C0D5CF14BC81E085BD80936E00F6
S113006085BB84E686BD089514B884E087B980E32F
S11300708AB915B818B81BB818B80895F5DFEBDFBE
S11300807894FFCF1F920F920FB60F9211242F93E3
S11300903F934F936F937F938F939F93EF93FF932C
S11300A0E0910101F0E083E0F595E7958A95E1F7A9
S11300B080910101806890E09F0143E0220F331F8B
S11300C04A95E1F7821B930B20910001EE5FFE4FEE
S11300D0408130E08F779927B90102C0660F771FFE
S11300E08A95E2F7CB01842B8083809101018F5F95
S11300F080930101809101018F5F8093010198B188
S113010084E0892788B984EB86BDFF91EF919F91A4
S11301108F917F916F914F913F912F910F900FBECF
S10D01200F901F901895F894FFCF7C
S9030000FC
